{
  "contractName": "Company",
  "abi": [
    {
      "inputs": [
        {
          "internalType": "address",
          "name": "_account",
          "type": "address"
        },
        {
          "internalType": "string",
          "name": "_name",
          "type": "string"
        },
        {
          "internalType": "string",
          "name": "_pk",
          "type": "string"
        }
      ],
      "stateMutability": "nonpayable",
      "type": "constructor"
    },
    {
      "inputs": [],
      "name": "account",
      "outputs": [
        {
          "internalType": "address",
          "name": "",
          "type": "address"
        }
      ],
      "stateMutability": "view",
      "type": "function"
    },
    {
      "inputs": [],
      "name": "active",
      "outputs": [
        {
          "internalType": "bool",
          "name": "",
          "type": "bool"
        }
      ],
      "stateMutability": "view",
      "type": "function"
    },
    {
      "inputs": [],
      "name": "created",
      "outputs": [
        {
          "internalType": "bool",
          "name": "",
          "type": "bool"
        }
      ],
      "stateMutability": "view",
      "type": "function"
    },
    {
      "inputs": [],
      "name": "name",
      "outputs": [
        {
          "internalType": "string",
          "name": "",
          "type": "string"
        }
      ],
      "stateMutability": "view",
      "type": "function"
    },
    {
      "inputs": [],
      "name": "activate",
      "outputs": [],
      "stateMutability": "nonpayable",
      "type": "function"
    },
    {
      "inputs": [
        {
          "internalType": "string",
          "name": "_pk",
          "type": "string"
        }
      ],
      "name": "setPK",
      "outputs": [],
      "stateMutability": "nonpayable",
      "type": "function"
    },
    {
      "inputs": [],
      "name": "getPK",
      "outputs": [
        {
          "internalType": "string",
          "name": "",
          "type": "string"
        }
      ],
      "stateMutability": "view",
      "type": "function"
    },
    {
      "inputs": [
        {
          "internalType": "uint256",
          "name": "_docIndex",
          "type": "uint256"
        }
      ],
      "name": "addRecDoc",
      "outputs": [],
      "stateMutability": "nonpayable",
      "type": "function"
    },
    {
      "inputs": [
        {
          "internalType": "uint256",
          "name": "_docIndex",
          "type": "uint256"
        }
      ],
      "name": "sendDoc",
      "outputs": [],
      "stateMutability": "nonpayable",
      "type": "function"
    }
  ],
  "bytecode": "0x608060405234801561001057600080fd5b506040516109513803806109518339818101604052606081101561003357600080fd5b81019080805190602001909291908051604051939291908464010000000082111561005d57600080fd5b8382019150602082018581111561007357600080fd5b825186600182028301116401000000008211171561009057600080fd5b8083526020830192505050908051906020019080838360005b838110156100c45780820151818401526020810190506100a9565b50505050905090810190601f1680156100f15780820380516001836020036101000a031916815260200191505b506040526020018051604051939291908464010000000082111561011457600080fd5b8382019150602082018581111561012a57600080fd5b825186600182028301116401000000008211171561014757600080fd5b8083526020830192505050908051906020019080838360005b8381101561017b578082015181840152602081019050610160565b50505050905090810190601f1680156101a85780820380516001836020036101000a031916815260200191505b50604052505050826000806101000a81548173ffffffffffffffffffffffffffffffffffffffff021916908373ffffffffffffffffffffffffffffffffffffffff160217905550816001908051906020019061020592919061025b565b50806002908051906020019061021c92919061025b565b506001600360006101000a81548160ff0219169083151502179055506000600360016101000a81548160ff021916908315150217905550505050610300565b828054600181600116156101000203166002900490600052602060002090601f016020900481019282601f1061029c57805160ff19168380011785556102ca565b828001600101855582156102ca579182015b828111156102c95782518255916020019190600101906102ae565b5b5090506102d791906102db565b5090565b6102fd91905b808211156102f95760008160009055506001016102e1565b5090565b90565b6106428061030f6000396000f3fe608060405234801561001057600080fd5b50600436106100935760003560e01c8063325a19f111610066578063325a19f1146102025780635dab2420146102245780636eed7f611461026e578063ac9e14f51461029c578063c3f17cb51461031f57610093565b806302fb0c5e1461009857806306fdde03146100ba5780630f15f4c01461013d5780631ce16af814610147575b600080fd5b6100a061034d565b604051808215151515815260200191505060405180910390f35b6100c2610360565b6040518080602001828103825283818151815260200191508051906020019080838360005b838110156101025780820151818401526020810190506100e7565b50505050905090810190601f16801561012f5780820380516001836020036101000a031916815260200191505b509250505060405180910390f35b6101456103fe565b005b6102006004803603602081101561015d57600080fd5b810190808035906020019064010000000081111561017a57600080fd5b82018360208201111561018c57600080fd5b803590602001918460018302840111640100000000831117156101ae57600080fd5b91908080601f016020809104026020016040519081016040528093929190818152602001838380828437600081840152601f19601f82011690508083019250505050505050919291929050505061041b565b005b61020a610435565b604051808215151515815260200191505060405180910390f35b61022c610448565b604051808273ffffffffffffffffffffffffffffffffffffffff1673ffffffffffffffffffffffffffffffffffffffff16815260200191505060405180910390f35b61029a6004803603602081101561028457600080fd5b810190808035906020019092919050505061046d565b005b6102a4610499565b6040518080602001828103825283818151815260200191508051906020019080838360005b838110156102e45780820151818401526020810190506102c9565b50505050905090810190601f1680156103115780820380516001836020036101000a031916815260200191505b509250505060405180910390f35b61034b6004803603602081101561033557600080fd5b810190808035906020019092919050505061053b565b005b600360019054906101000a900460ff1681565b60018054600181600116156101000203166002900480601f0160208091040260200160405190810160405280929190818152602001828054600181600116156101000203166002900480156103f65780601f106103cb576101008083540402835291602001916103f6565b820191906000526020600020905b8154815290600101906020018083116103d957829003601f168201915b505050505081565b6001600360016101000a81548160ff021916908315150217905550565b8060029080519060200190610431929190610567565b5050565b600360009054906101000a900460ff1681565b6000809054906101000a900473ffffffffffffffffffffffffffffffffffffffff1681565b600481908060018154018082558091505060019003906000526020600020016000909190919091505550565b606060028054600181600116156101000203166002900480601f0160208091040260200160405190810160405280929190818152602001828054600181600116156101000203166002900480156105315780601f1061050657610100808354040283529160200191610531565b820191906000526020600020905b81548152906001019060200180831161051457829003601f168201915b5050505050905090565b600581908060018154018082558091505060019003906000526020600020016000909190919091505550565b828054600181600116156101000203166002900490600052602060002090601f016020900481019282601f106105a857805160ff19168380011785556105d6565b828001600101855582156105d6579182015b828111156105d55782518255916020019190600101906105ba565b5b5090506105e391906105e7565b5090565b61060991905b808211156106055760008160009055506001016105ed565b5090565b9056fea264697066735822122070149a8652861ed5c1e2a43c875e931b47711a423069cb81d1ef76f5d55ecfa564736f6c63430006080033",
  "immutableReferences": {},
  "source": "pragma solidity ^0.6.8;\r\ncontract Company{\r\n    address public account;\r\n    string public name ;\r\n    string pk ;\r\n    bool public created ;\r\n    bool public active ;\r\n    uint256[] receviedDocs;\r\n    uint256[] sentDocs;\r\n    \r\n    constructor(address _account, string memory _name, string memory _pk) public{\r\n        account = _account;\r\n        name = _name;\r\n        pk = _pk;\r\n        created = true;\r\n        active = false;\r\n    }\r\n    \r\n    function activate() public{\r\n        active = true;\r\n    }\r\n    \r\n    function setPK(string memory _pk) public {\r\n        pk = _pk;\r\n    }\r\n    \r\n    function getPK() public view returns(string memory){\r\n        return pk;\r\n    }\r\n    \r\n    // add two function to add in both rec and sent docs the index of the documents.................\r\n    \r\n    function addRecDoc(uint256 _docIndex) public{\r\n        receviedDocs.push(_docIndex);\r\n    }\r\n    \r\n    function sendDoc(uint256 _docIndex) public{\r\n        sentDocs.push(_docIndex);\r\n    }\r\n    \r\n}\r\n",
  "sourcePath": "C:\\Users\\hasan\\Desktop\\DocsExc\\contracts\\Company.sol",
  "compiler": {
    "name": "solc",
    "version": "0.6.8+commit.0bbfe453.Emscripten.clang"
  },
  "schemaVersion": "3.2.2",
  "updatedAt": "2020-08-11T14:26:15.728Z",
  "devdoc": {
    "methods": {}
  },
  "userdoc": {
    "methods": {}
  }
}