{
  "contractName": "Company",
  "abi": [
    {
      "inputs": [
        {
          "internalType": "address",
          "name": "_account",
          "type": "address"
        },
        {
          "internalType": "string",
          "name": "_name",
          "type": "string"
        },
        {
          "internalType": "string",
          "name": "_pk",
          "type": "string"
        }
      ],
      "stateMutability": "nonpayable",
      "type": "constructor"
    },
    {
      "inputs": [],
      "name": "account",
      "outputs": [
        {
          "internalType": "address",
          "name": "",
          "type": "address"
        }
      ],
      "stateMutability": "view",
      "type": "function"
    },
    {
      "inputs": [],
      "name": "active",
      "outputs": [
        {
          "internalType": "bool",
          "name": "",
          "type": "bool"
        }
      ],
      "stateMutability": "view",
      "type": "function"
    },
    {
      "inputs": [],
      "name": "created",
      "outputs": [
        {
          "internalType": "bool",
          "name": "",
          "type": "bool"
        }
      ],
      "stateMutability": "view",
      "type": "function"
    },
    {
      "inputs": [],
      "name": "name",
      "outputs": [
        {
          "internalType": "string",
          "name": "",
          "type": "string"
        }
      ],
      "stateMutability": "view",
      "type": "function"
    },
    {
      "inputs": [],
      "name": "activate",
      "outputs": [],
      "stateMutability": "nonpayable",
      "type": "function"
    },
    {
      "inputs": [
        {
          "internalType": "string",
          "name": "_pk",
          "type": "string"
        }
      ],
      "name": "setPK",
      "outputs": [],
      "stateMutability": "nonpayable",
      "type": "function"
    },
    {
      "inputs": [],
      "name": "getPK",
      "outputs": [
        {
          "internalType": "string",
          "name": "",
          "type": "string"
        }
      ],
      "stateMutability": "view",
      "type": "function"
    },
    {
      "inputs": [
        {
          "internalType": "address",
          "name": "docAddress",
          "type": "address"
        }
      ],
      "name": "pushDoc",
      "outputs": [],
      "stateMutability": "nonpayable",
      "type": "function"
    },
    {
      "inputs": [
        {
          "internalType": "address",
          "name": "owner",
          "type": "address"
        }
      ],
      "name": "getRecDocsArr",
      "outputs": [
        {
          "internalType": "address[]",
          "name": "",
          "type": "address[]"
        }
      ],
      "stateMutability": "view",
      "type": "function"
    }
  ],
  "bytecode": "0x608060405234801561001057600080fd5b50604051610b3a380380610b3a8339818101604052606081101561003357600080fd5b81019080805190602001909291908051604051939291908464010000000082111561005d57600080fd5b8382019150602082018581111561007357600080fd5b825186600182028301116401000000008211171561009057600080fd5b8083526020830192505050908051906020019080838360005b838110156100c45780820151818401526020810190506100a9565b50505050905090810190601f1680156100f15780820380516001836020036101000a031916815260200191505b506040526020018051604051939291908464010000000082111561011457600080fd5b8382019150602082018581111561012a57600080fd5b825186600182028301116401000000008211171561014757600080fd5b8083526020830192505050908051906020019080838360005b8381101561017b578082015181840152602081019050610160565b50505050905090810190601f1680156101a85780820380516001836020036101000a031916815260200191505b50604052505050826000806101000a81548173ffffffffffffffffffffffffffffffffffffffff021916908373ffffffffffffffffffffffffffffffffffffffff160217905550816001908051906020019061020592919061025b565b50806002908051906020019061021c92919061025b565b506001600360006101000a81548160ff0219169083151502179055506000600360016101000a81548160ff021916908315150217905550505050610300565b828054600181600116156101000203166002900490600052602060002090601f016020900481019282601f1061029c57805160ff19168380011785556102ca565b828001600101855582156102ca579182015b828111156102c95782518255916020019190600101906102ae565b5b5090506102d791906102db565b5090565b6102fd91905b808211156102f95760008160009055506001016102e1565b5090565b90565b61082b8061030f6000396000f3fe608060405234801561001057600080fd5b50600436106100935760003560e01c80631ce16af8116100665780631ce16af8146101e0578063325a19f11461029b57806347cc1b1c146102bd5780635dab242014610301578063ac9e14f51461034b57610093565b806302fb0c5e1461009857806306fdde03146100ba5780630f15f4c01461013d57806313f9ce0714610147575b600080fd5b6100a06103ce565b604051808215151515815260200191505060405180910390f35b6100c26103e1565b6040518080602001828103825283818151815260200191508051906020019080838360005b838110156101025780820151818401526020810190506100e7565b50505050905090810190601f16801561012f5780820380516001836020036101000a031916815260200191505b509250505060405180910390f35b61014561047f565b005b6101896004803603602081101561015d57600080fd5b81019080803573ffffffffffffffffffffffffffffffffffffffff16906020019092919050505061049c565b6040518080602001828103825283818151815260200191508051906020019060200280838360005b838110156101cc5780820151818401526020810190506101b1565b505050509050019250505060405180910390f35b610299600480360360208110156101f657600080fd5b810190808035906020019064010000000081111561021357600080fd5b82018360208201111561022557600080fd5b8035906020019184600183028401116401000000008311171561024757600080fd5b91908080601f016020809104026020016040519081016040528093929190818152602001838380828437600081840152601f19601f8201169050808301925050505050505091929192905050506105d1565b005b6102a36105eb565b604051808215151515815260200191505060405180910390f35b6102ff600480360360208110156102d357600080fd5b81019080803573ffffffffffffffffffffffffffffffffffffffff1690602001909291905050506105fe565b005b610309610664565b604051808273ffffffffffffffffffffffffffffffffffffffff1673ffffffffffffffffffffffffffffffffffffffff16815260200191505060405180910390f35b610353610689565b6040518080602001828103825283818151815260200191508051906020019080838360005b83811015610393578082015181840152602081019050610378565b50505050905090810190601f1680156103c05780820380516001836020036101000a031916815260200191505b509250505060405180910390f35b600360019054906101000a900460ff1681565b60018054600181600116156101000203166002900480601f0160208091040260200160405190810160405280929190818152602001828054600181600116156101000203166002900480156104775780601f1061044c57610100808354040283529160200191610477565b820191906000526020600020905b81548152906001019060200180831161045a57829003601f168201915b505050505081565b6001600360016101000a81548160ff021916908315150217905550565b60606000809054906101000a900473ffffffffffffffffffffffffffffffffffffffff1673ffffffffffffffffffffffffffffffffffffffff168273ffffffffffffffffffffffffffffffffffffffff1614610543576040517f08c379a00000000000000000000000000000000000000000000000000000000081526004018080602001828103825260258152602001806107d16025913960400191505060405180910390fd5b60048054806020026020016040519081016040528092919081815260200182805480156105c557602002820191906000526020600020905b8160009054906101000a900473ffffffffffffffffffffffffffffffffffffffff1673ffffffffffffffffffffffffffffffffffffffff168152602001906001019080831161057b575b50505050509050919050565b80600290805190602001906105e792919061072b565b5050565b600360009054906101000a900460ff1681565b6004819080600181540180825580915050600190039060005260206000200160009091909190916101000a81548173ffffffffffffffffffffffffffffffffffffffff021916908373ffffffffffffffffffffffffffffffffffffffff16021790555050565b6000809054906101000a900473ffffffffffffffffffffffffffffffffffffffff1681565b606060028054600181600116156101000203166002900480601f0160208091040260200160405190810160405280929190818152602001828054600181600116156101000203166002900480156107215780601f106106f657610100808354040283529160200191610721565b820191906000526020600020905b81548152906001019060200180831161070457829003601f168201915b5050505050905090565b828054600181600116156101000203166002900490600052602060002090601f016020900481019282601f1061076c57805160ff191683800117855561079a565b8280016001018555821561079a579182015b8281111561079957825182559160200191906001019061077e565b5b5090506107a791906107ab565b5090565b6107cd91905b808211156107c95760008160009055506001016107b1565b5090565b9056fe596f7520617265206e6f7420746865204f776e6572204f662074686973204163636f756e74a2646970667358221220245ee25f9087d8f06e7c0138bdf88d9d0b03ce1718bae92fd0e55deda1f224da64736f6c63430006080033",
  "immutableReferences": {},
  "source": "pragma solidity ^0.6.8;\r\ncontract Company{\r\n    address public account;\r\n    string public name ;\r\n    string pk ;\r\n    bool public created ;\r\n    bool public active ;\r\n    address[] recDocs;\r\n    \r\n    \r\n    constructor(address _account, string memory _name, string memory _pk) public{\r\n        account = _account;\r\n        name = _name;\r\n        pk = _pk;\r\n        created = true;\r\n        active = false;\r\n    }\r\n    \r\n    function activate() public{\r\n        active = true;\r\n    }\r\n    \r\n    function setPK(string memory _pk) public {\r\n        pk = _pk;\r\n    }\r\n    \r\n    function getPK() public view returns(string memory){\r\n        return pk;\r\n    }\r\n    \r\n    function pushDoc(address docAddress) public{\r\n        recDocs.push(docAddress);\r\n    }\r\n\r\n    function getRecDocsArr(address owner) public view returns(address[] memory){\r\n        require(owner == account, \"You are not the Owner Of this Account\");\r\n        return recDocs;\r\n    }\r\n    \r\n    \r\n    \r\n    // add two function to add in both rec and sent docs the index of the documents.................\r\n    \r\n\r\n    \r\n}\r\n",
  "sourcePath": "C:\\Users\\hasan\\Desktop\\DocsExc\\contracts\\Company.sol",
  "compiler": {
    "name": "solc",
    "version": "0.6.8+commit.0bbfe453.Emscripten.clang"
  },
  "schemaVersion": "3.2.2",
  "updatedAt": "2020-08-31T07:43:23.490Z",
  "devdoc": {
    "methods": {}
  },
  "userdoc": {
    "methods": {}
  }
}