{
  "contractName": "Doc",
  "abi": [
    {
      "inputs": [
        {
          "internalType": "string",
          "name": "_signature",
          "type": "string"
        },
        {
          "internalType": "address",
          "name": "_from_address",
          "type": "address"
        },
        {
          "internalType": "address",
          "name": "_to_address",
          "type": "address"
        }
      ],
      "stateMutability": "nonpayable",
      "type": "constructor"
    },
    {
      "inputs": [],
      "name": "from_address",
      "outputs": [
        {
          "internalType": "address",
          "name": "",
          "type": "address"
        }
      ],
      "stateMutability": "view",
      "type": "function"
    },
    {
      "inputs": [],
      "name": "signature",
      "outputs": [
        {
          "internalType": "string",
          "name": "",
          "type": "string"
        }
      ],
      "stateMutability": "view",
      "type": "function"
    },
    {
      "inputs": [],
      "name": "to_address",
      "outputs": [
        {
          "internalType": "address",
          "name": "",
          "type": "address"
        }
      ],
      "stateMutability": "view",
      "type": "function"
    }
  ],
  "bytecode": "0x608060405234801561001057600080fd5b506040516104d73803806104d78339818101604052606081101561003357600080fd5b810190808051604051939291908464010000000082111561005357600080fd5b8382019150602082018581111561006957600080fd5b825186600182028301116401000000008211171561008657600080fd5b8083526020830192505050908051906020019080838360005b838110156100ba57808201518184015260208101905061009f565b50505050905090810190601f1680156100e75780820380516001836020036101000a031916815260200191505b506040526020018051906020019092919080519060200190929190505050826000908051906020019061011b9291906101a6565b5081600160006101000a81548173ffffffffffffffffffffffffffffffffffffffff021916908373ffffffffffffffffffffffffffffffffffffffff16021790555080600260006101000a81548173ffffffffffffffffffffffffffffffffffffffff021916908373ffffffffffffffffffffffffffffffffffffffff16021790555050505061024b565b828054600181600116156101000203166002900490600052602060002090601f016020900481019282601f106101e757805160ff1916838001178555610215565b82800160010185558215610215579182015b828111156102145782518255916020019190600101906101f9565b5b5090506102229190610226565b5090565b61024891905b8082111561024457600081600090555060010161022c565b5090565b90565b61027d8061025a6000396000f3fe608060405234801561001057600080fd5b50600436106100415760003560e01c80631f6b1d221461004657806351ff484714610090578063e19391f814610113575b600080fd5b61004e61015d565b604051808273ffffffffffffffffffffffffffffffffffffffff1673ffffffffffffffffffffffffffffffffffffffff16815260200191505060405180910390f35b610098610183565b6040518080602001828103825283818151815260200191508051906020019080838360005b838110156100d85780820151818401526020810190506100bd565b50505050905090810190601f1680156101055780820380516001836020036101000a031916815260200191505b509250505060405180910390f35b61011b610221565b604051808273ffffffffffffffffffffffffffffffffffffffff1673ffffffffffffffffffffffffffffffffffffffff16815260200191505060405180910390f35b600160009054906101000a900473ffffffffffffffffffffffffffffffffffffffff1681565b60008054600181600116156101000203166002900480601f0160208091040260200160405190810160405280929190818152602001828054600181600116156101000203166002900480156102195780601f106101ee57610100808354040283529160200191610219565b820191906000526020600020905b8154815290600101906020018083116101fc57829003601f168201915b505050505081565b600260009054906101000a900473ffffffffffffffffffffffffffffffffffffffff168156fea264697066735822122010e650e26364b0b2f5886efcbce16c66e252e236bc3ca0265ff913fe00b5dd0964736f6c63430006080033",
  "immutableReferences": {},
  "source": "pragma solidity ^0.6.8;\r\n\r\ncontract Doc{\r\n    string public signature ;\r\n    address public from_address ;\r\n    address public to_address ;\r\n    constructor (string memory _signature, address _from_address, address _to_address) public {\r\n        signature = _signature;\r\n        from_address = _from_address;\r\n        to_address = _to_address;\r\n    }   \r\n}",
  "sourcePath": "C:\\Users\\hasan\\Desktop\\DocsExc\\contracts\\Doc.sol",
  "compiler": {
    "name": "solc",
    "version": "0.6.8+commit.0bbfe453.Emscripten.clang"
  },
  "schemaVersion": "3.2.2",
  "updatedAt": "2020-08-23T07:32:18.805Z",
  "devdoc": {
    "methods": {}
  },
  "userdoc": {
    "methods": {}
  }
}