{
  "contractName": "MyProject",
  "abi": [
    {
      "anonymous": false,
      "inputs": [
        {
          "indexed": false,
          "internalType": "string",
          "name": "_name",
          "type": "string"
        },
        {
          "indexed": true,
          "internalType": "address",
          "name": "_account",
          "type": "address"
        }
      ],
      "name": "allCompanies",
      "type": "event"
    },
    {
      "anonymous": false,
      "inputs": [
        {
          "indexed": true,
          "internalType": "address",
          "name": "_account",
          "type": "address"
        }
      ],
      "name": "alreadyRegis",
      "type": "event"
    },
    {
      "anonymous": false,
      "inputs": [
        {
          "indexed": true,
          "internalType": "address",
          "name": "_account",
          "type": "address"
        }
      ],
      "name": "inactiveCompany",
      "type": "event"
    },
    {
      "anonymous": false,
      "inputs": [
        {
          "indexed": false,
          "internalType": "uint256",
          "name": "_companies_index",
          "type": "uint256"
        }
      ],
      "name": "successRegis",
      "type": "event"
    },
    {
      "anonymous": false,
      "inputs": [
        {
          "indexed": true,
          "internalType": "address",
          "name": "_account",
          "type": "address"
        }
      ],
      "name": "unregisteredCompany",
      "type": "event"
    },
    {
      "inputs": [
        {
          "internalType": "address",
          "name": "",
          "type": "address"
        }
      ],
      "name": "companies",
      "outputs": [
        {
          "internalType": "contract Company",
          "name": "",
          "type": "address"
        }
      ],
      "stateMutability": "view",
      "type": "function"
    },
    {
      "inputs": [
        {
          "internalType": "uint256",
          "name": "",
          "type": "uint256"
        }
      ],
      "name": "companies_list",
      "outputs": [
        {
          "internalType": "address",
          "name": "",
          "type": "address"
        }
      ],
      "stateMutability": "view",
      "type": "function"
    },
    {
      "inputs": [
        {
          "internalType": "uint256",
          "name": "",
          "type": "uint256"
        }
      ],
      "name": "docs",
      "outputs": [
        {
          "internalType": "contract Doc",
          "name": "",
          "type": "address"
        }
      ],
      "stateMutability": "view",
      "type": "function"
    },
    {
      "inputs": [],
      "name": "isOwner",
      "outputs": [
        {
          "internalType": "bool",
          "name": "",
          "type": "bool"
        }
      ],
      "stateMutability": "view",
      "type": "function"
    },
    {
      "inputs": [],
      "name": "owner",
      "outputs": [
        {
          "internalType": "address",
          "name": "",
          "type": "address"
        }
      ],
      "stateMutability": "view",
      "type": "function"
    },
    {
      "inputs": [
        {
          "internalType": "address",
          "name": "_account",
          "type": "address"
        },
        {
          "internalType": "string",
          "name": "_name",
          "type": "string"
        }
      ],
      "name": "regCompany",
      "outputs": [],
      "stateMutability": "nonpayable",
      "type": "function"
    },
    {
      "inputs": [
        {
          "internalType": "string",
          "name": "_pk",
          "type": "string"
        }
      ],
      "name": "activateComp",
      "outputs": [],
      "stateMutability": "nonpayable",
      "type": "function"
    },
    {
      "inputs": [],
      "name": "isActive",
      "outputs": [
        {
          "internalType": "bool",
          "name": "isIt",
          "type": "bool"
        }
      ],
      "stateMutability": "view",
      "type": "function"
    },
    {
      "inputs": [],
      "name": "getCompaniesNum",
      "outputs": [
        {
          "internalType": "uint256",
          "name": "",
          "type": "uint256"
        }
      ],
      "stateMutability": "view",
      "type": "function"
    },
    {
      "inputs": [
        {
          "internalType": "address",
          "name": "_address",
          "type": "address"
        }
      ],
      "name": "getCompanyPK",
      "outputs": [
        {
          "internalType": "string",
          "name": "",
          "type": "string"
        }
      ],
      "stateMutability": "view",
      "type": "function"
    },
    {
      "inputs": [
        {
          "internalType": "string",
          "name": "_hash",
          "type": "string"
        },
        {
          "internalType": "address",
          "name": "_to_address",
          "type": "address"
        }
      ],
      "name": "createDoc",
      "outputs": [],
      "stateMutability": "nonpayable",
      "type": "function"
    },
    {
      "inputs": [
        {
          "internalType": "uint256",
          "name": "_docIndex",
          "type": "uint256"
        }
      ],
      "name": "getDocHash",
      "outputs": [
        {
          "internalType": "string",
          "name": "",
          "type": "string"
        }
      ],
      "stateMutability": "view",
      "type": "function"
    },
    {
      "inputs": [
        {
          "internalType": "uint256",
          "name": "comp_index",
          "type": "uint256"
        }
      ],
      "name": "getCompany",
      "outputs": [
        {
          "internalType": "string",
          "name": "_name",
          "type": "string"
        },
        {
          "internalType": "address",
          "name": "_address",
          "type": "address"
        }
      ],
      "stateMutability": "view",
      "type": "function"
    },
    {
      "inputs": [],
      "name": "getAllCompanies",
      "outputs": [],
      "stateMutability": "pure",
      "type": "function"
    },
    {
      "inputs": [],
      "name": "getAllmyRecDocs",
      "outputs": [
        {
          "internalType": "contract Doc",
          "name": "",
          "type": "address"
        }
      ],
      "stateMutability": "nonpayable",
      "type": "function"
    }
  ],
  "bytecode": "0x608060405234801561001057600080fd5b50336000806101000a81548173ffffffffffffffffffffffffffffffffffffffff021916908373ffffffffffffffffffffffffffffffffffffffff160217905550613c5e806100606000396000f3fe60806040523480156200001157600080fd5b50600436106200010c5760003560e01c806372395f0c11620000a5578063a20b77ad116200006f578063a20b77ad1462000547578063b442ea4614620005f4578063daeca11514620006b7578063dc50d11f1462000798576200010c565b806372395f0c14620003855780638da5cb5b14620004665780638f32d59b14620004b25780639294a45a14620004d6576200010c565b8063408bf4c311620000e7578063408bf4c3146200022d5780634fcf9993146200023957806351f98ae8146200025957806357d1391714620002a5576200010c565b806322f3e2d4146200011157806323389c5a1462000135578063355e6ce814620001a6575b600080fd5b6200011b62000859565b604051808215151515815260200191505060405180910390f35b62000164600480360360208110156200014d57600080fd5b810190808035906020019092919050505062000943565b604051808273ffffffffffffffffffffffffffffffffffffffff1673ffffffffffffffffffffffffffffffffffffffff16815260200191505060405180910390f35b620001eb60048036036020811015620001be57600080fd5b81019080803573ffffffffffffffffffffffffffffffffffffffff16906020019092919050505062000976565b604051808273ffffffffffffffffffffffffffffffffffffffff1673ffffffffffffffffffffffffffffffffffffffff16815260200191505060405180910390f35b62000237620009a9565b005b62000243620009ab565b6040518082815260200191505060405180910390f35b62000263620009b5565b604051808273ffffffffffffffffffffffffffffffffffffffff1673ffffffffffffffffffffffffffffffffffffffff16815260200191505060405180910390f35b620002d460048036036020811015620002bd57600080fd5b810190808035906020019092919050505062000f2e565b60405180806020018373ffffffffffffffffffffffffffffffffffffffff1673ffffffffffffffffffffffffffffffffffffffff168152602001828103825284818151815260200191508051906020019080838360005b83811015620003485780820151818401526020810190506200032b565b50505050905090810190601f168015620003765780820380516001836020036101000a031916815260200191505b50935050505060405180910390f35b62000464600480360360408110156200039d57600080fd5b8101908080359060200190640100000000811115620003bb57600080fd5b820183602082011115620003ce57600080fd5b80359060200191846001830284011164010000000083111715620003f157600080fd5b91908080601f016020809104026020016040519081016040528093929190818152602001838380828437600081840152601f19601f820116905080830192505050505050509192919290803573ffffffffffffffffffffffffffffffffffffffff169060200190929190505050620011b2565b005b620004706200198f565b604051808273ffffffffffffffffffffffffffffffffffffffff1673ffffffffffffffffffffffffffffffffffffffff16815260200191505060405180910390f35b620004bc620019b4565b604051808215151515815260200191505060405180910390f35b6200050560048036036020811015620004ee57600080fd5b810190808035906020019092919050505062001a0b565b604051808273ffffffffffffffffffffffffffffffffffffffff1673ffffffffffffffffffffffffffffffffffffffff16815260200191505060405180910390f35b62000576600480360360208110156200055f57600080fd5b810190808035906020019092919050505062001a48565b6040518080602001828103825283818151815260200191508051906020019080838360005b83811015620005b85780820151818401526020810190506200059b565b50505050905090810190601f168015620005e65780820380516001836020036101000a031916815260200191505b509250505060405180910390f35b62000639600480360360208110156200060c57600080fd5b81019080803573ffffffffffffffffffffffffffffffffffffffff16906020019092919050505062001c89565b6040518080602001828103825283818151815260200191508051906020019080838360005b838110156200067b5780820151818401526020810190506200065e565b50505050905090810190601f168015620006a95780820380516001836020036101000a031916815260200191505b509250505060405180910390f35b6200079660048036036040811015620006cf57600080fd5b81019080803573ffffffffffffffffffffffffffffffffffffffff169060200190929190803590602001906401000000008111156200070d57600080fd5b8201836020820111156200072057600080fd5b803590602001918460018302840111640100000000831117156200074357600080fd5b91908080601f016020809104026020016040519081016040528093929190818152602001838380828437600081840152601f19601f82011690508083019250505050505050919291929050505062002554565b005b6200085760048036036020811015620007b057600080fd5b8101908080359060200190640100000000811115620007ce57600080fd5b820183602082011115620007e157600080fd5b803590602001918460018302840111640100000000831117156200080457600080fd5b91908080601f016020809104026020016040519081016040528093929190818152602001838380828437600081840152601f19601f820116905080830192505050505050509192919290505050620027fa565b005b6000600360003373ffffffffffffffffffffffffffffffffffffffff1673ffffffffffffffffffffffffffffffffffffffff16815260200190815260200160002060009054906101000a900473ffffffffffffffffffffffffffffffffffffffff1673ffffffffffffffffffffffffffffffffffffffff166302fb0c5e6040518163ffffffff1660e01b815260040160206040518083038186803b1580156200090157600080fd5b505afa15801562000916573d6000803e3d6000fd5b505050506040513d60208110156200092d57600080fd5b8101908080519060200190929190505050905090565b60056020528060005260406000206000915054906101000a900473ffffffffffffffffffffffffffffffffffffffff1681565b60036020528060005260406000206000915054906101000a900473ffffffffffffffffffffffffffffffffffffffff1681565b565b6000600154905090565b600033600073ffffffffffffffffffffffffffffffffffffffff16600360008373ffffffffffffffffffffffffffffffffffffffff1673ffffffffffffffffffffffffffffffffffffffff16815260200190815260200160002060009054906101000a900473ffffffffffffffffffffffffffffffffffffffff1673ffffffffffffffffffffffffffffffffffffffff16141562000a9f576040517f08c379a000000000000000000000000000000000000000000000000000000000815260040180806020018281038252602381526020018062003be06023913960400191505060405180910390fd5b600360003373ffffffffffffffffffffffffffffffffffffffff1673ffffffffffffffffffffffffffffffffffffffff16815260200190815260200160002060009054906101000a900473ffffffffffffffffffffffffffffffffffffffff16600360003373ffffffffffffffffffffffffffffffffffffffff1673ffffffffffffffffffffffffffffffffffffffff16815260200190815260200160002060009054906101000a900473ffffffffffffffffffffffffffffffffffffffff1673ffffffffffffffffffffffffffffffffffffffff1663325a19f16040518163ffffffff1660e01b815260040160206040518083038186803b15801562000ba557600080fd5b505afa15801562000bba573d6000803e3d6000fd5b505050506040513d602081101562000bd157600080fd5b810190808051906020019092919050505062000c39576040517f08c379a000000000000000000000000000000000000000000000000000000000815260040180806020018281038252602181526020018062003b4e6021913960400191505060405180910390fd5b600360003373ffffffffffffffffffffffffffffffffffffffff1673ffffffffffffffffffffffffffffffffffffffff16815260200190815260200160002060009054906101000a900473ffffffffffffffffffffffffffffffffffffffff1673ffffffffffffffffffffffffffffffffffffffff166302fb0c5e6040518163ffffffff1660e01b815260040160206040518083038186803b15801562000cdf57600080fd5b505afa15801562000cf4573d6000803e3d6000fd5b505050506040513d602081101562000d0b57600080fd5b810190808051906020019092919050505062000d73576040517f08c379a000000000000000000000000000000000000000000000000000000000815260040180806020018281038252602181526020018062003b6f6021913960400191505060405180910390fd5b8073ffffffffffffffffffffffffffffffffffffffff1663325a19f16040518163ffffffff1660e01b815260040160206040518083038186803b15801562000dba57600080fd5b505afa15801562000dcf573d6000803e3d6000fd5b505050506040513d602081101562000de657600080fd5b810190808051906020019092919050505062000e4e576040517f08c379a000000000000000000000000000000000000000000000000000000000815260040180806020018281038252602881526020018062003b906028913960400191505060405180910390fd5b8073ffffffffffffffffffffffffffffffffffffffff166302fb0c5e6040518163ffffffff1660e01b815260040160206040518083038186803b15801562000e9557600080fd5b505afa15801562000eaa573d6000803e3d6000fd5b505050506040513d602081101562000ec157600080fd5b810190808051906020019092919050505062000f29576040517f08c379a000000000000000000000000000000000000000000000000000000000815260040180806020018281038252602881526020018062003bb86028913960400191505060405180910390fd5b505090565b60606000600280549050831062000f91576040517f08c379a000000000000000000000000000000000000000000000000000000000815260040180806020018281038252604081526020018062003b0e6040913960400191505060405180910390fd5b600360006002858154811062000fa357fe5b9060005260206000200160009054906101000a900473ffffffffffffffffffffffffffffffffffffffff1673ffffffffffffffffffffffffffffffffffffffff1673ffffffffffffffffffffffffffffffffffffffff16815260200190815260200160002060009054906101000a900473ffffffffffffffffffffffffffffffffffffffff1673ffffffffffffffffffffffffffffffffffffffff166306fdde036040518163ffffffff1660e01b815260040160006040518083038186803b1580156200106f57600080fd5b505afa15801562001084573d6000803e3d6000fd5b505050506040513d6000823e3d601f19601f820116820180604052506020811015620010af57600080fd5b8101908080516040519392919084640100000000821115620010d057600080fd5b83820191506020820185811115620010e757600080fd5b82518660018202830111640100000000821117156200110557600080fd5b8083526020830192505050908051906020019080838360005b838110156200113b5780820151818401526020810190506200111e565b50505050905090810190601f168015620011695780820380516001836020036101000a031916815260200191505b506040525050509150600283815481106200118057fe5b9060005260206000200160009054906101000a900473ffffffffffffffffffffffffffffffffffffffff169050915091565b33600073ffffffffffffffffffffffffffffffffffffffff16600360008373ffffffffffffffffffffffffffffffffffffffff1673ffffffffffffffffffffffffffffffffffffffff16815260200190815260200160002060009054906101000a900473ffffffffffffffffffffffffffffffffffffffff1673ffffffffffffffffffffffffffffffffffffffff1614156200129a576040517f08c379a000000000000000000000000000000000000000000000000000000000815260040180806020018281038252602381526020018062003be06023913960400191505060405180910390fd5b81600073ffffffffffffffffffffffffffffffffffffffff16600360008373ffffffffffffffffffffffffffffffffffffffff1673ffffffffffffffffffffffffffffffffffffffff16815260200190815260200160002060009054906101000a900473ffffffffffffffffffffffffffffffffffffffff1673ffffffffffffffffffffffffffffffffffffffff16141562001382576040517f08c379a000000000000000000000000000000000000000000000000000000000815260040180806020018281038252602381526020018062003be06023913960400191505060405180910390fd5b600360008473ffffffffffffffffffffffffffffffffffffffff1673ffffffffffffffffffffffffffffffffffffffff16815260200190815260200160002060009054906101000a900473ffffffffffffffffffffffffffffffffffffffff16600360003373ffffffffffffffffffffffffffffffffffffffff1673ffffffffffffffffffffffffffffffffffffffff16815260200190815260200160002060009054906101000a900473ffffffffffffffffffffffffffffffffffffffff1673ffffffffffffffffffffffffffffffffffffffff1663325a19f16040518163ffffffff1660e01b815260040160206040518083038186803b1580156200148857600080fd5b505afa1580156200149d573d6000803e3d6000fd5b505050506040513d6020811015620014b457600080fd5b81019080805190602001909291905050506200151c576040517f08c379a000000000000000000000000000000000000000000000000000000000815260040180806020018281038252602181526020018062003b4e6021913960400191505060405180910390fd5b600360003373ffffffffffffffffffffffffffffffffffffffff1673ffffffffffffffffffffffffffffffffffffffff16815260200190815260200160002060009054906101000a900473ffffffffffffffffffffffffffffffffffffffff1673ffffffffffffffffffffffffffffffffffffffff166302fb0c5e6040518163ffffffff1660e01b815260040160206040518083038186803b158015620015c257600080fd5b505afa158015620015d7573d6000803e3d6000fd5b505050506040513d6020811015620015ee57600080fd5b810190808051906020019092919050505062001656576040517f08c379a000000000000000000000000000000000000000000000000000000000815260040180806020018281038252602181526020018062003b6f6021913960400191505060405180910390fd5b8073ffffffffffffffffffffffffffffffffffffffff1663325a19f16040518163ffffffff1660e01b815260040160206040518083038186803b1580156200169d57600080fd5b505afa158015620016b2573d6000803e3d6000fd5b505050506040513d6020811015620016c957600080fd5b810190808051906020019092919050505062001731576040517f08c379a000000000000000000000000000000000000000000000000000000000815260040180806020018281038252602881526020018062003b906028913960400191505060405180910390fd5b8073ffffffffffffffffffffffffffffffffffffffff166302fb0c5e6040518163ffffffff1660e01b815260040160206040518083038186803b1580156200177857600080fd5b505afa1580156200178d573d6000803e3d6000fd5b505050506040513d6020811015620017a457600080fd5b81019080805190602001909291905050506200180c576040517f08c379a000000000000000000000000000000000000000000000000000000000815260040180806020018281038252602881526020018062003bb86028913960400191505060405180910390fd5b6000600454863387604051620018229062002c88565b80858152602001806020018473ffffffffffffffffffffffffffffffffffffffff1673ffffffffffffffffffffffffffffffffffffffff1681526020018373ffffffffffffffffffffffffffffffffffffffff1673ffffffffffffffffffffffffffffffffffffffff168152602001828103825285818151815260200191508051906020019080838360005b83811015620018cb578082015181840152602081019050620018ae565b50505050905090810190601f168015620018f95780820380516001836020036101000a031916815260200191505b5095505050505050604051809103906000f0801580156200191e573d6000803e3d6000fd5b5090508060056000600454815260200190815260200160002060006101000a81548173ffffffffffffffffffffffffffffffffffffffff021916908373ffffffffffffffffffffffffffffffffffffffff160217905550600460008154809291906001019190505550505050505050565b6000809054906101000a900473ffffffffffffffffffffffffffffffffffffffff1681565b60008060009054906101000a900473ffffffffffffffffffffffffffffffffffffffff1673ffffffffffffffffffffffffffffffffffffffff163373ffffffffffffffffffffffffffffffffffffffff1614905090565b6002818154811062001a1957fe5b906000526020600020016000915054906101000a900473ffffffffffffffffffffffffffffffffffffffff1681565b606081600073ffffffffffffffffffffffffffffffffffffffff166005600083815260200190815260200160002060009054906101000a900473ffffffffffffffffffffffffffffffffffffffff1673ffffffffffffffffffffffffffffffffffffffff16141562001b06576040517f08c379a000000000000000000000000000000000000000000000000000000000815260040180806020018281038252602681526020018062003c036026913960400191505060405180910390fd5b6005600084815260200190815260200160002060009054906101000a900473ffffffffffffffffffffffffffffffffffffffff1673ffffffffffffffffffffffffffffffffffffffff166309bd5a606040518163ffffffff1660e01b815260040160006040518083038186803b15801562001b8057600080fd5b505afa15801562001b95573d6000803e3d6000fd5b505050506040513d6000823e3d601f19601f82011682018060405250602081101562001bc057600080fd5b810190808051604051939291908464010000000082111562001be157600080fd5b8382019150602082018581111562001bf857600080fd5b825186600182028301116401000000008211171562001c1657600080fd5b8083526020830192505050908051906020019080838360005b8381101562001c4c57808201518184015260208101905062001c2f565b50505050905090810190601f16801562001c7a5780820380516001836020036101000a031916815260200191505b50604052505050915050919050565b6060600360008373ffffffffffffffffffffffffffffffffffffffff1673ffffffffffffffffffffffffffffffffffffffff16815260200190815260200160002060009054906101000a900473ffffffffffffffffffffffffffffffffffffffff16600073ffffffffffffffffffffffffffffffffffffffff16600360008373ffffffffffffffffffffffffffffffffffffffff1673ffffffffffffffffffffffffffffffffffffffff16815260200190815260200160002060009054906101000a900473ffffffffffffffffffffffffffffffffffffffff1673ffffffffffffffffffffffffffffffffffffffff16141562001dd2576040517f08c379a000000000000000000000000000000000000000000000000000000000815260040180806020018281038252602381526020018062003be06023913960400191505060405180910390fd5b600360003373ffffffffffffffffffffffffffffffffffffffff1673ffffffffffffffffffffffffffffffffffffffff16815260200190815260200160002060009054906101000a900473ffffffffffffffffffffffffffffffffffffffff16600073ffffffffffffffffffffffffffffffffffffffff16600360008373ffffffffffffffffffffffffffffffffffffffff1673ffffffffffffffffffffffffffffffffffffffff16815260200190815260200160002060009054906101000a900473ffffffffffffffffffffffffffffffffffffffff1673ffffffffffffffffffffffffffffffffffffffff16141562001f19576040517f08c379a000000000000000000000000000000000000000000000000000000000815260040180806020018281038252602381526020018062003be06023913960400191505060405180910390fd5b600360008573ffffffffffffffffffffffffffffffffffffffff1673ffffffffffffffffffffffffffffffffffffffff16815260200190815260200160002060009054906101000a900473ffffffffffffffffffffffffffffffffffffffff16600360003373ffffffffffffffffffffffffffffffffffffffff1673ffffffffffffffffffffffffffffffffffffffff16815260200190815260200160002060009054906101000a900473ffffffffffffffffffffffffffffffffffffffff1673ffffffffffffffffffffffffffffffffffffffff1663325a19f16040518163ffffffff1660e01b815260040160206040518083038186803b1580156200201f57600080fd5b505afa15801562002034573d6000803e3d6000fd5b505050506040513d60208110156200204b57600080fd5b8101908080519060200190929190505050620020b3576040517f08c379a000000000000000000000000000000000000000000000000000000000815260040180806020018281038252602181526020018062003b4e6021913960400191505060405180910390fd5b600360003373ffffffffffffffffffffffffffffffffffffffff1673ffffffffffffffffffffffffffffffffffffffff16815260200190815260200160002060009054906101000a900473ffffffffffffffffffffffffffffffffffffffff1673ffffffffffffffffffffffffffffffffffffffff166302fb0c5e6040518163ffffffff1660e01b815260040160206040518083038186803b1580156200215957600080fd5b505afa1580156200216e573d6000803e3d6000fd5b505050506040513d60208110156200218557600080fd5b8101908080519060200190929190505050620021ed576040517f08c379a000000000000000000000000000000000000000000000000000000000815260040180806020018281038252602181526020018062003b6f6021913960400191505060405180910390fd5b8073ffffffffffffffffffffffffffffffffffffffff1663325a19f16040518163ffffffff1660e01b815260040160206040518083038186803b1580156200223457600080fd5b505afa15801562002249573d6000803e3d6000fd5b505050506040513d60208110156200226057600080fd5b8101908080519060200190929190505050620022c8576040517f08c379a000000000000000000000000000000000000000000000000000000000815260040180806020018281038252602881526020018062003b906028913960400191505060405180910390fd5b8073ffffffffffffffffffffffffffffffffffffffff166302fb0c5e6040518163ffffffff1660e01b815260040160206040518083038186803b1580156200230f57600080fd5b505afa15801562002324573d6000803e3d6000fd5b505050506040513d60208110156200233b57600080fd5b8101908080519060200190929190505050620023a3576040517f08c379a000000000000000000000000000000000000000000000000000000000815260040180806020018281038252602881526020018062003bb86028913960400191505060405180910390fd5b600360008673ffffffffffffffffffffffffffffffffffffffff1673ffffffffffffffffffffffffffffffffffffffff16815260200190815260200160002060009054906101000a900473ffffffffffffffffffffffffffffffffffffffff1673ffffffffffffffffffffffffffffffffffffffff1663ac9e14f56040518163ffffffff1660e01b815260040160006040518083038186803b1580156200244957600080fd5b505afa1580156200245e573d6000803e3d6000fd5b505050506040513d6000823e3d601f19601f8201168201806040525060208110156200248957600080fd5b8101908080516040519392919084640100000000821115620024aa57600080fd5b83820191506020820185811115620024c157600080fd5b8251866001820283011164010000000082111715620024df57600080fd5b8083526020830192505050908051906020019080838360005b8381101562002515578082015181840152602081019050620024f8565b50505050905090810190601f168015620025435780820380516001836020036101000a031916815260200191505b506040525050509350505050919050565b3373ffffffffffffffffffffffffffffffffffffffff166000809054906101000a900473ffffffffffffffffffffffffffffffffffffffff1673ffffffffffffffffffffffffffffffffffffffff161462002617576040517f08c379a00000000000000000000000000000000000000000000000000000000081526004018080602001828103825260138152602001807f596f7520617265204e6f7420416c6c6f7765640000000000000000000000000081525060200191505060405180910390fd5b60008282604051620026299062002c96565b808373ffffffffffffffffffffffffffffffffffffffff1673ffffffffffffffffffffffffffffffffffffffff1681526020018060200180602001838103835284818151815260200191508051906020019080838360005b838110156200269e57808201518184015260208101905062002681565b50505050905090810190601f168015620026cc5780820380516001836020036101000a031916815260200191505b50838103825260008152602001602001945050505050604051809103906000f080158015620026ff573d6000803e3d6000fd5b50905080600360008573ffffffffffffffffffffffffffffffffffffffff1673ffffffffffffffffffffffffffffffffffffffff16815260200190815260200160002060006101000a81548173ffffffffffffffffffffffffffffffffffffffff021916908373ffffffffffffffffffffffffffffffffffffffff1602179055506002839080600181540180825580915050600190039060005260206000200160009091909190916101000a81548173ffffffffffffffffffffffffffffffffffffffff021916908373ffffffffffffffffffffffffffffffffffffffff160217905550600160008154809291906001019190505550505050565b33600073ffffffffffffffffffffffffffffffffffffffff16600360008373ffffffffffffffffffffffffffffffffffffffff1673ffffffffffffffffffffffffffffffffffffffff16815260200190815260200160002060009054906101000a900473ffffffffffffffffffffffffffffffffffffffff1673ffffffffffffffffffffffffffffffffffffffff161415620028e2576040517f08c379a000000000000000000000000000000000000000000000000000000000815260040180806020018281038252602381526020018062003be06023913960400191505060405180910390fd5b600360003373ffffffffffffffffffffffffffffffffffffffff1673ffffffffffffffffffffffffffffffffffffffff16815260200190815260200160002060009054906101000a900473ffffffffffffffffffffffffffffffffffffffff1673ffffffffffffffffffffffffffffffffffffffff1663325a19f16040518163ffffffff1660e01b815260040160206040518083038186803b1580156200298857600080fd5b505afa1580156200299d573d6000803e3d6000fd5b505050506040513d6020811015620029b457600080fd5b81019080805190602001909291905050501562002c40576000600360003373ffffffffffffffffffffffffffffffffffffffff1673ffffffffffffffffffffffffffffffffffffffff16815260200190815260200160002060009054906101000a900473ffffffffffffffffffffffffffffffffffffffff1690508073ffffffffffffffffffffffffffffffffffffffff166302fb0c5e6040518163ffffffff1660e01b815260040160206040518083038186803b15801562002a7657600080fd5b505afa15801562002a8b573d6000803e3d6000fd5b505050506040513d602081101562002aa257600080fd5b810190808051906020019092919050505062002bf5578073ffffffffffffffffffffffffffffffffffffffff16630f15f4c06040518163ffffffff1660e01b8152600401600060405180830381600087803b15801562002b0157600080fd5b505af115801562002b16573d6000803e3d6000fd5b505050508073ffffffffffffffffffffffffffffffffffffffff16631ce16af8846040518263ffffffff1660e01b81526004018080602001828103825283818151815260200191508051906020019080838360005b8381101562002b8857808201518184015260208101905062002b6b565b50505050905090810190601f16801562002bb65780820380516001836020036101000a031916815260200191505b5092505050600060405180830381600087803b15801562002bd657600080fd5b505af115801562002beb573d6000803e3d6000fd5b5050505062002c39565b3373ffffffffffffffffffffffffffffffffffffffff167fbf7d116f77e0d3be2303ec3ca2af1384e1eb92be19c239d565d5845c62d6b05c60405160405180910390a25b5062002c84565b3373ffffffffffffffffffffffffffffffffffffffff167f1de9c2364187e2be709ce388547328dcb61a71b4490667b394b07b58caf9debc60405160405180910390a25b5050565b6105188062002ca583390190565b61095180620031bd8339019056fe608060405234801561001057600080fd5b506040516105183803806105188339818101604052608081101561003357600080fd5b81019080805190602001909291908051604051939291908464010000000082111561005d57600080fd5b8382019150602082018581111561007357600080fd5b825186600182028301116401000000008211171561009057600080fd5b8083526020830192505050908051906020019080838360005b838110156100c45780820151818401526020810190506100a9565b50505050905090810190601f1680156100f15780820380516001836020036101000a031916815260200191505b50604052602001805190602001909291908051906020019092919050505083600081905550826001908051906020019061012c9291906101b8565b5081600260006101000a81548173ffffffffffffffffffffffffffffffffffffffff021916908373ffffffffffffffffffffffffffffffffffffffff16021790555080600360006101000a81548173ffffffffffffffffffffffffffffffffffffffff021916908373ffffffffffffffffffffffffffffffffffffffff1602179055505050505061025d565b828054600181600116156101000203166002900490600052602060002090601f016020900481019282601f106101f957805160ff1916838001178555610227565b82800160010185558215610227579182015b8281111561022657825182559160200191906001019061020b565b5b5090506102349190610238565b5090565b61025a91905b8082111561025657600081600090555060010161023e565b5090565b90565b6102ac8061026c6000396000f3fe608060405234801561001057600080fd5b506004361061004c5760003560e01c806309bd5a60146100515780631f6b1d22146100d4578063af640d0f1461011e578063e19391f81461013c575b600080fd5b610059610186565b6040518080602001828103825283818151815260200191508051906020019080838360005b8381101561009957808201518184015260208101905061007e565b50505050905090810190601f1680156100c65780820380516001836020036101000a031916815260200191505b509250505060405180910390f35b6100dc610224565b604051808273ffffffffffffffffffffffffffffffffffffffff1673ffffffffffffffffffffffffffffffffffffffff16815260200191505060405180910390f35b61012661024a565b6040518082815260200191505060405180910390f35b610144610250565b604051808273ffffffffffffffffffffffffffffffffffffffff1673ffffffffffffffffffffffffffffffffffffffff16815260200191505060405180910390f35b60018054600181600116156101000203166002900480601f01602080910402602001604051908101604052809291908181526020018280546001816001161561010002031660029004801561021c5780601f106101f15761010080835404028352916020019161021c565b820191906000526020600020905b8154815290600101906020018083116101ff57829003601f168201915b505050505081565b600260009054906101000a900473ffffffffffffffffffffffffffffffffffffffff1681565b60005481565b600360009054906101000a900473ffffffffffffffffffffffffffffffffffffffff168156fea2646970667358221220e2afa5d8533e23c0508e95cf717456cf13ecf0e257eb05f042464095d99cb81064736f6c63430006080033608060405234801561001057600080fd5b506040516109513803806109518339818101604052606081101561003357600080fd5b81019080805190602001909291908051604051939291908464010000000082111561005d57600080fd5b8382019150602082018581111561007357600080fd5b825186600182028301116401000000008211171561009057600080fd5b8083526020830192505050908051906020019080838360005b838110156100c45780820151818401526020810190506100a9565b50505050905090810190601f1680156100f15780820380516001836020036101000a031916815260200191505b506040526020018051604051939291908464010000000082111561011457600080fd5b8382019150602082018581111561012a57600080fd5b825186600182028301116401000000008211171561014757600080fd5b8083526020830192505050908051906020019080838360005b8381101561017b578082015181840152602081019050610160565b50505050905090810190601f1680156101a85780820380516001836020036101000a031916815260200191505b50604052505050826000806101000a81548173ffffffffffffffffffffffffffffffffffffffff021916908373ffffffffffffffffffffffffffffffffffffffff160217905550816001908051906020019061020592919061025b565b50806002908051906020019061021c92919061025b565b506001600360006101000a81548160ff0219169083151502179055506000600360016101000a81548160ff021916908315150217905550505050610300565b828054600181600116156101000203166002900490600052602060002090601f016020900481019282601f1061029c57805160ff19168380011785556102ca565b828001600101855582156102ca579182015b828111156102c95782518255916020019190600101906102ae565b5b5090506102d791906102db565b5090565b6102fd91905b808211156102f95760008160009055506001016102e1565b5090565b90565b6106428061030f6000396000f3fe608060405234801561001057600080fd5b50600436106100935760003560e01c8063325a19f111610066578063325a19f1146102025780635dab2420146102245780636eed7f611461026e578063ac9e14f51461029c578063c3f17cb51461031f57610093565b806302fb0c5e1461009857806306fdde03146100ba5780630f15f4c01461013d5780631ce16af814610147575b600080fd5b6100a061034d565b604051808215151515815260200191505060405180910390f35b6100c2610360565b6040518080602001828103825283818151815260200191508051906020019080838360005b838110156101025780820151818401526020810190506100e7565b50505050905090810190601f16801561012f5780820380516001836020036101000a031916815260200191505b509250505060405180910390f35b6101456103fe565b005b6102006004803603602081101561015d57600080fd5b810190808035906020019064010000000081111561017a57600080fd5b82018360208201111561018c57600080fd5b803590602001918460018302840111640100000000831117156101ae57600080fd5b91908080601f016020809104026020016040519081016040528093929190818152602001838380828437600081840152601f19601f82011690508083019250505050505050919291929050505061041b565b005b61020a610435565b604051808215151515815260200191505060405180910390f35b61022c610448565b604051808273ffffffffffffffffffffffffffffffffffffffff1673ffffffffffffffffffffffffffffffffffffffff16815260200191505060405180910390f35b61029a6004803603602081101561028457600080fd5b810190808035906020019092919050505061046d565b005b6102a4610499565b6040518080602001828103825283818151815260200191508051906020019080838360005b838110156102e45780820151818401526020810190506102c9565b50505050905090810190601f1680156103115780820380516001836020036101000a031916815260200191505b509250505060405180910390f35b61034b6004803603602081101561033557600080fd5b810190808035906020019092919050505061053b565b005b600360019054906101000a900460ff1681565b60018054600181600116156101000203166002900480601f0160208091040260200160405190810160405280929190818152602001828054600181600116156101000203166002900480156103f65780601f106103cb576101008083540402835291602001916103f6565b820191906000526020600020905b8154815290600101906020018083116103d957829003601f168201915b505050505081565b6001600360016101000a81548160ff021916908315150217905550565b8060029080519060200190610431929190610567565b5050565b600360009054906101000a900460ff1681565b6000809054906101000a900473ffffffffffffffffffffffffffffffffffffffff1681565b600481908060018154018082558091505060019003906000526020600020016000909190919091505550565b606060028054600181600116156101000203166002900480601f0160208091040260200160405190810160405280929190818152602001828054600181600116156101000203166002900480156105315780601f1061050657610100808354040283529160200191610531565b820191906000526020600020905b81548152906001019060200180831161051457829003601f168201915b5050505050905090565b600581908060018154018082558091505060019003906000526020600020016000909190919091505550565b828054600181600116156101000203166002900490600052602060002090601f016020900481019282601f106105a857805160ff19168380011785556105d6565b828001600101855582156105d6579182015b828111156105d55782518255916020019190600101906105ba565b5b5090506105e391906105e7565b5090565b61060991905b808211156106055760008160009055506001016105ed565b5090565b9056fea264697066735822122070149a8652861ed5c1e2a43c875e931b47711a423069cb81d1ef76f5d55ecfa564736f6c63430006080033676574436f6d70616e792066756e6374696f6e3a207265717565737420616e20696e646578206f7574206f662074686520617272617920626f756e6472792e2e596f7572206163636f756e74206973206e6f742072656769737472656420796574596f7572206163636f756e74206973206e6f74206163746976617465642079657454686520746172676574206163636f756e7420776173206e6f74207265676973747265642079657474686520746172676574206163636f756e7420776173206e6f74206163746976617465642079657454686973204163636f756e7420776173206e6f742072656769737472656420796574215468652072657175657374656420646f63756d656e7420646f65736e27742065786973747321a2646970667358221220325dc995afdc5941acc1b6743d77222e2ff5c383fe5b6e44e7d0d4a37828982064736f6c63430006080033",
  "immutableReferences": {},
  "source": "pragma solidity ^0.6.8;\r\nimport \"./Doc.sol\";\r\nimport \"./Ownable.sol\";\r\nimport \"./Company.sol\";\r\n\r\ncontract MyProject is Ownable {\r\n    uint256 companies_index;\r\n    address[] public companies_list;\r\n    mapping(address => Company) public companies; \r\n    \r\n    uint256 doc_index;\r\n    mapping(uint256 => Doc) public docs;\r\n    \r\n    \r\n    // EVENTS EVENTS EVENTS EVENTS EVENTS EVENTS EVENTS EVENTS EVENTS EVENTS EVENTS EVENTS EVENTS EVENTS EVENTS EVENTS EVENTS EVENTS\r\n    event successRegis(uint256 _companies_index);\r\n    event alreadyRegis(address indexed _account);\r\n    event inactiveCompany(address indexed _account);\r\n    event unregisteredCompany(address indexed _account);\r\n    event allCompanies(string _name, address indexed _account);\r\n    \r\n    \r\n    // MODIFIER MODIFIER MODIFIER MODIFIER MODIFIER MODIFIER MODIFIER MODIFIER MODIFIER MODIFIER MODIFIER MODIFIER MODIFIER MODIFIER\r\n    modifier doesCompanyExists(address _address){\r\n        require(address(companies[_address]) != 0x0000000000000000000000000000000000000000, \"This Account was not registred yet!\");\r\n        _;\r\n    }\r\n    modifier isRegAndActive(Company com){\r\n        require(companies[msg.sender].created(), \"Your account is not registred yet\");\r\n        require(companies[msg.sender].active(), \"Your account is not activated yet\");\r\n        require(com.created(), \"The target account was not registred yet\");\r\n        require(com.active(), \"the target account was not activated yet\");\r\n        _;\r\n    }\r\n    modifier doesDocExists(uint256 docIndex){\r\n        require(address(docs[docIndex]) != 0x0000000000000000000000000000000000000000, \"The requested document doesn't exists!\");\r\n        _;\r\n    }\r\n    \r\n    \r\n    \r\n    \r\n    /// FUNCTIONS FUNCTIONS FUNCTIONS FUNCTIONS FUNCTIONS FUNCTIONS FUNCTIONS FUNCTIONS FUNCTIONS FUNCTIONS\r\n    function regCompany(address _account, string memory _name) public onlyOwner{\r\n            Company company =  new Company(_account, _name,\"\");\r\n            companies[_account] = company;\r\n            companies_list.push(_account);\r\n            companies_index++;\r\n    }\r\n    \r\n    function activateComp(string memory _pk) public doesCompanyExists(msg.sender){\r\n        if(companies[msg.sender].created()){\r\n            Company com = companies[msg.sender];\r\n            if(!com.active()){\r\n                com.activate();\r\n                com.setPK(_pk);\r\n            }\r\n            else{\r\n                emit inactiveCompany(msg.sender);\r\n            }\r\n        }\r\n        else{\r\n            emit unregisteredCompany(msg.sender);\r\n        }\r\n    }\r\n\r\n    function isActive() view external returns(bool isIt) {\r\n        return(companies[msg.sender].active());\r\n    }\r\n    \r\n    function getCompaniesNum() public view returns(uint256){\r\n        return (companies_index);\r\n    }\r\n\r\n    function getCompanyPK(address _address) public doesCompanyExists(address(companies[_address])) doesCompanyExists(address(companies[msg.sender]))\r\n    isRegAndActive(companies[_address])view returns(string memory){\r\n        return(companies[_address].getPK());\r\n    }\r\n    \r\n    function createDoc(string memory _hash, address _to_address) public doesCompanyExists(msg.sender) doesCompanyExists(_to_address) isRegAndActive(companies[_to_address]){\r\n        Doc doc = new Doc(doc_index, _hash, msg.sender, _to_address);\r\n        //  docRec[doc_index] = _to_address;\r\n        //  docSend[doc_index] = msg.sender;\r\n        docs[doc_index] = doc;\r\n        doc_index++;\r\n    }\r\n    \r\n    function getDocHash(uint _docIndex) public doesDocExists(_docIndex) view returns(string memory)  {\r\n        return(docs[_docIndex].hash());\r\n    }\r\n    \r\n    function getCompany(uint256 comp_index) public view returns(string memory _name, address _address){\r\n        require(comp_index < companies_list.length, \"getCompany function: request an index out of the array boundry..\");\r\n        _name = companies[companies_list[comp_index]].name();\r\n        _address = companies_list[comp_index];\r\n    }\r\n    \r\n    function getAllCompanies() public pure {\r\n        \r\n    }\r\n    \r\n    function getAllmyRecDocs() public doesCompanyExists(msg.sender) isRegAndActive(companies[msg.sender]) returns (Doc){\r\n        // WHAT TO DO HERE ____________  t(-_-t)  ____________ USE THE COMPANY ALL RECEIVED DOCS AFTER ADDING THE ARRAY.\r\n        \r\n    }\r\n    \r\n}",
  "sourcePath": "C:\\Users\\hasan\\Desktop\\DocsExc\\contracts\\MyProject.sol",
  "compiler": {
    "name": "solc",
    "version": "0.6.8+commit.0bbfe453.Emscripten.clang"
  },
  "schemaVersion": "3.2.2",
  "updatedAt": "2020-08-11T14:26:15.746Z",
  "devdoc": {
    "methods": {}
  },
  "userdoc": {
    "methods": {
      "regCompany(address,string)": {
        "notice": "FUNCTIONS FUNCTIONS FUNCTIONS FUNCTIONS FUNCTIONS FUNCTIONS FUNCTIONS FUNCTIONS FUNCTIONS FUNCTIONS"
      }
    }
  }
}