{
  "contractName": "MyProject",
  "abi": [
    {
      "anonymous": false,
      "inputs": [
        {
          "indexed": false,
          "internalType": "string",
          "name": "_name",
          "type": "string"
        },
        {
          "indexed": true,
          "internalType": "address",
          "name": "_account",
          "type": "address"
        }
      ],
      "name": "allCompanies",
      "type": "event"
    },
    {
      "anonymous": false,
      "inputs": [
        {
          "indexed": true,
          "internalType": "address",
          "name": "_account",
          "type": "address"
        }
      ],
      "name": "alreadyRegis",
      "type": "event"
    },
    {
      "anonymous": false,
      "inputs": [
        {
          "indexed": true,
          "internalType": "address",
          "name": "doc_id",
          "type": "address"
        }
      ],
      "name": "docCreated",
      "type": "event"
    },
    {
      "anonymous": false,
      "inputs": [
        {
          "indexed": true,
          "internalType": "address",
          "name": "_account",
          "type": "address"
        }
      ],
      "name": "inactiveCompany",
      "type": "event"
    },
    {
      "anonymous": false,
      "inputs": [
        {
          "indexed": false,
          "internalType": "uint256",
          "name": "_companies_index",
          "type": "uint256"
        }
      ],
      "name": "successRegis",
      "type": "event"
    },
    {
      "anonymous": false,
      "inputs": [
        {
          "indexed": true,
          "internalType": "address",
          "name": "_account",
          "type": "address"
        }
      ],
      "name": "unregisteredCompany",
      "type": "event"
    },
    {
      "inputs": [
        {
          "internalType": "address",
          "name": "",
          "type": "address"
        }
      ],
      "name": "companies",
      "outputs": [
        {
          "internalType": "contract Company",
          "name": "",
          "type": "address"
        }
      ],
      "stateMutability": "view",
      "type": "function",
      "constant": true
    },
    {
      "inputs": [
        {
          "internalType": "uint256",
          "name": "",
          "type": "uint256"
        }
      ],
      "name": "companies_list",
      "outputs": [
        {
          "internalType": "address",
          "name": "",
          "type": "address"
        }
      ],
      "stateMutability": "view",
      "type": "function",
      "constant": true
    },
    {
      "inputs": [
        {
          "internalType": "address",
          "name": "",
          "type": "address"
        }
      ],
      "name": "docs",
      "outputs": [
        {
          "internalType": "contract Doc",
          "name": "",
          "type": "address"
        }
      ],
      "stateMutability": "view",
      "type": "function",
      "constant": true
    },
    {
      "inputs": [],
      "name": "isOwner",
      "outputs": [
        {
          "internalType": "bool",
          "name": "",
          "type": "bool"
        }
      ],
      "stateMutability": "view",
      "type": "function",
      "constant": true
    },
    {
      "inputs": [],
      "name": "owner",
      "outputs": [
        {
          "internalType": "address",
          "name": "",
          "type": "address"
        }
      ],
      "stateMutability": "view",
      "type": "function",
      "constant": true
    },
    {
      "inputs": [
        {
          "internalType": "address",
          "name": "_account",
          "type": "address"
        },
        {
          "internalType": "string",
          "name": "_name",
          "type": "string"
        }
      ],
      "name": "regCompany",
      "outputs": [],
      "stateMutability": "nonpayable",
      "type": "function"
    },
    {
      "inputs": [
        {
          "internalType": "string",
          "name": "_pk",
          "type": "string"
        }
      ],
      "name": "activateComp",
      "outputs": [],
      "stateMutability": "nonpayable",
      "type": "function"
    },
    {
      "inputs": [
        {
          "internalType": "string",
          "name": "_signature",
          "type": "string"
        },
        {
          "internalType": "string",
          "name": "desc",
          "type": "string"
        },
        {
          "internalType": "address",
          "name": "_to_address",
          "type": "address"
        }
      ],
      "name": "createDoc",
      "outputs": [
        {
          "internalType": "address",
          "name": "",
          "type": "address"
        }
      ],
      "stateMutability": "nonpayable",
      "type": "function"
    },
    {
      "inputs": [
        {
          "internalType": "address",
          "name": "_address",
          "type": "address"
        }
      ],
      "name": "doesCompEx",
      "outputs": [
        {
          "internalType": "bool",
          "name": "",
          "type": "bool"
        }
      ],
      "stateMutability": "view",
      "type": "function",
      "constant": true
    },
    {
      "inputs": [
        {
          "internalType": "address",
          "name": "_address",
          "type": "address"
        }
      ],
      "name": "doesCompActive",
      "outputs": [
        {
          "internalType": "bool",
          "name": "",
          "type": "bool"
        }
      ],
      "stateMutability": "view",
      "type": "function",
      "constant": true
    },
    {
      "inputs": [],
      "name": "getCompaniesNum",
      "outputs": [
        {
          "internalType": "uint256",
          "name": "",
          "type": "uint256"
        }
      ],
      "stateMutability": "view",
      "type": "function",
      "constant": true
    },
    {
      "inputs": [
        {
          "internalType": "address",
          "name": "_address",
          "type": "address"
        }
      ],
      "name": "getCompanyPK",
      "outputs": [
        {
          "internalType": "string",
          "name": "",
          "type": "string"
        }
      ],
      "stateMutability": "view",
      "type": "function",
      "constant": true
    },
    {
      "inputs": [],
      "name": "getCompDocsArr",
      "outputs": [
        {
          "internalType": "address[]",
          "name": "arr",
          "type": "address[]"
        }
      ],
      "stateMutability": "view",
      "type": "function",
      "constant": true
    },
    {
      "inputs": [
        {
          "internalType": "uint256",
          "name": "_docIndex",
          "type": "uint256"
        }
      ],
      "name": "getDoc",
      "outputs": [
        {
          "internalType": "address",
          "name": "id",
          "type": "address"
        },
        {
          "internalType": "string",
          "name": "signature",
          "type": "string"
        },
        {
          "internalType": "string",
          "name": "desc",
          "type": "string"
        },
        {
          "internalType": "address",
          "name": "from_address",
          "type": "address"
        },
        {
          "internalType": "address",
          "name": "to_address",
          "type": "address"
        }
      ],
      "stateMutability": "view",
      "type": "function",
      "constant": true
    },
    {
      "inputs": [
        {
          "internalType": "address",
          "name": "add",
          "type": "address"
        }
      ],
      "name": "getDocByAdd",
      "outputs": [
        {
          "internalType": "string",
          "name": "signature",
          "type": "string"
        },
        {
          "internalType": "string",
          "name": "desc",
          "type": "string"
        },
        {
          "internalType": "address",
          "name": "from_address",
          "type": "address"
        },
        {
          "internalType": "address",
          "name": "to_address",
          "type": "address"
        }
      ],
      "stateMutability": "view",
      "type": "function",
      "constant": true
    },
    {
      "inputs": [
        {
          "internalType": "uint256",
          "name": "comp_index",
          "type": "uint256"
        }
      ],
      "name": "getCompany",
      "outputs": [
        {
          "internalType": "string",
          "name": "_name",
          "type": "string"
        },
        {
          "internalType": "address",
          "name": "_address",
          "type": "address"
        },
        {
          "internalType": "bool",
          "name": "_active",
          "type": "bool"
        }
      ],
      "stateMutability": "view",
      "type": "function",
      "constant": true
    },
    {
      "inputs": [
        {
          "internalType": "address",
          "name": "adres",
          "type": "address"
        }
      ],
      "name": "getCompanyByAddress",
      "outputs": [
        {
          "internalType": "string",
          "name": "_name",
          "type": "string"
        },
        {
          "internalType": "bool",
          "name": "_active",
          "type": "bool"
        }
      ],
      "stateMutability": "view",
      "type": "function",
      "constant": true
    }
  ],
  "bytecode": "0x608060405234801561001057600080fd5b50336000806101000a81548173ffffffffffffffffffffffffffffffffffffffff021916908373ffffffffffffffffffffffffffffffffffffffff160217905550614f5e806100606000396000f3fe60806040523480156200001157600080fd5b5060043610620001245760003560e01c80637715c8a311620000b1578063b442ea46116200007b578063b442ea4614620009c5578063daeca1151462000a88578063dc50d11f1462000b69578063eb4d2ec11462000c2a578063f117dd5b1462000cb15762000124565b80637715c8a314620008855780638da5cb5b14620008e45780638f32d59b14620009305780639294a45a14620009545762000124565b80633c93162011620000f35780633c93162014620006b85780634fcf9993146200071b57806357d13917146200073b5780635b42bd1014620008265762000124565b80631801f5aa14620001295780631ac5756c14620002c15780632ba665e5146200047c578063355e6ce81462000631575b600080fd5b6200016e600480360360208110156200014157600080fd5b81019080803573ffffffffffffffffffffffffffffffffffffffff16906020019092919050505062000d7f565b6040518080602001806020018573ffffffffffffffffffffffffffffffffffffffff1673ffffffffffffffffffffffffffffffffffffffff1681526020018473ffffffffffffffffffffffffffffffffffffffff1673ffffffffffffffffffffffffffffffffffffffff168152602001838103835287818151815260200191508051906020019080838360005b8381101562000218578082015181840152602081019050620001fb565b50505050905090810190601f168015620002465780820380516001836020036101000a031916815260200191505b50838103825286818151815260200191508051906020019080838360005b838110156200028157808201518184015260208101905062000264565b50505050905090810190601f168015620002af5780820380516001836020036101000a031916815260200191505b50965050505050505060405180910390f35b6200043a60048036036060811015620002d957600080fd5b8101908080359060200190640100000000811115620002f757600080fd5b8201836020820111156200030a57600080fd5b803590602001918460018302840111640100000000831117156200032d57600080fd5b91908080601f016020809104026020016040519081016040528093929190818152602001838380828437600081840152601f19601f820116905080830192505050505050509192919290803590602001906401000000008111156200039157600080fd5b820183602082011115620003a457600080fd5b80359060200191846001830284011164010000000083111715620003c757600080fd5b91908080601f016020809104026020016040519081016040528093929190818152602001838380828437600081840152601f19601f820116905080830192505050505050509192919290803573ffffffffffffffffffffffffffffffffffffffff16906020019092919050505062001191565b604051808273ffffffffffffffffffffffffffffffffffffffff1673ffffffffffffffffffffffffffffffffffffffff16815260200191505060405180910390f35b620004ab600480360360208110156200049457600080fd5b810190808035906020019092919050505062001b2c565b604051808673ffffffffffffffffffffffffffffffffffffffff1673ffffffffffffffffffffffffffffffffffffffff16815260200180602001806020018573ffffffffffffffffffffffffffffffffffffffff1673ffffffffffffffffffffffffffffffffffffffff1681526020018473ffffffffffffffffffffffffffffffffffffffff1673ffffffffffffffffffffffffffffffffffffffff168152602001838103835287818151815260200191508051906020019080838360005b83811015620005875780820151818401526020810190506200056a565b50505050905090810190601f168015620005b55780820380516001836020036101000a031916815260200191505b50838103825286818151815260200191508051906020019080838360005b83811015620005f0578082015181840152602081019050620005d3565b50505050905090810190601f1680156200061e5780820380516001836020036101000a031916815260200191505b5097505050505050505060405180910390f35b62000676600480360360208110156200064957600080fd5b81019080803573ffffffffffffffffffffffffffffffffffffffff16906020019092919050505062001feb565b604051808273ffffffffffffffffffffffffffffffffffffffff1673ffffffffffffffffffffffffffffffffffffffff16815260200191505060405180910390f35b620006c26200201e565b6040518080602001828103825283818151815260200191508051906020019060200280838360005b8381101562000707578082015181840152602081019050620006ea565b505050509050019250505060405180910390f35b62000725620022cd565b6040518082815260200191505060405180910390f35b6200076a600480360360208110156200075357600080fd5b8101908080359060200190929190505050620022d7565b60405180806020018473ffffffffffffffffffffffffffffffffffffffff1673ffffffffffffffffffffffffffffffffffffffff16815260200183151515158152602001828103825285818151815260200191508051906020019080838360005b83811015620007e8578082015181840152602081019050620007cb565b50505050905090810190601f168015620008165780820380516001836020036101000a031916815260200191505b5094505050505060405180910390f35b6200086b600480360360208110156200083e57600080fd5b81019080803573ffffffffffffffffffffffffffffffffffffffff1690602001909291905050506200267b565b604051808215151515815260200191505060405180910390f35b620008ca600480360360208110156200089d57600080fd5b81019080803573ffffffffffffffffffffffffffffffffffffffff16906020019092919050505062002783565b604051808215151515815260200191505060405180910390f35b620008ee6200281b565b604051808273ffffffffffffffffffffffffffffffffffffffff1673ffffffffffffffffffffffffffffffffffffffff16815260200191505060405180910390f35b6200093a62002840565b604051808215151515815260200191505060405180910390f35b62000983600480360360208110156200096c57600080fd5b810190808035906020019092919050505062002897565b604051808273ffffffffffffffffffffffffffffffffffffffff1673ffffffffffffffffffffffffffffffffffffffff16815260200191505060405180910390f35b62000a0a60048036036020811015620009dd57600080fd5b81019080803573ffffffffffffffffffffffffffffffffffffffff169060200190929190505050620028d4565b6040518080602001828103825283818151815260200191508051906020019080838360005b8381101562000a4c57808201518184015260208101905062000a2f565b50505050905090810190601f16801562000a7a5780820380516001836020036101000a031916815260200191505b509250505060405180910390f35b62000b676004803603604081101562000aa057600080fd5b81019080803573ffffffffffffffffffffffffffffffffffffffff1690602001909291908035906020019064010000000081111562000ade57600080fd5b82018360208201111562000af157600080fd5b8035906020019184600183028401116401000000008311171562000b1457600080fd5b91908080601f016020809104026020016040519081016040528093929190818152602001838380828437600081840152601f19601f820116905080830192505050505050509192919290505050620030e1565b005b62000c286004803603602081101562000b8157600080fd5b810190808035906020019064010000000081111562000b9f57600080fd5b82018360208201111562000bb257600080fd5b8035906020019184600183028401116401000000008311171562000bd557600080fd5b91908080601f016020809104026020016040519081016040528093929190818152602001838380828437600081840152601f19601f82011690508083019250505050505050919291929050505062003387565b005b62000c6f6004803603602081101562000c4257600080fd5b81019080803573ffffffffffffffffffffffffffffffffffffffff16906020019092919050505062003815565b604051808273ffffffffffffffffffffffffffffffffffffffff1673ffffffffffffffffffffffffffffffffffffffff16815260200191505060405180910390f35b62000cf66004803603602081101562000cc957600080fd5b81019080803573ffffffffffffffffffffffffffffffffffffffff16906020019092919050505062003848565b604051808060200183151515158152602001828103825284818151815260200191508051906020019080838360005b8381101562000d4257808201518184015260208101905062000d25565b50505050905090810190601f16801562000d705780820380516001836020036101000a031916815260200191505b50935050505060405180910390f35b6060806000806000600460008773ffffffffffffffffffffffffffffffffffffffff1673ffffffffffffffffffffffffffffffffffffffff16815260200190815260200160002060009054906101000a900473ffffffffffffffffffffffffffffffffffffffff1690508073ffffffffffffffffffffffffffffffffffffffff166351ff48476040518163ffffffff1660e01b815260040160006040518083038186803b15801562000e3057600080fd5b505afa15801562000e45573d6000803e3d6000fd5b505050506040513d6000823e3d601f19601f82011682018060405250602081101562000e7057600080fd5b810190808051604051939291908464010000000082111562000e9157600080fd5b8382019150602082018581111562000ea857600080fd5b825186600182028301116401000000008211171562000ec657600080fd5b8083526020830192505050908051906020019080838360005b8381101562000efc57808201518184015260208101905062000edf565b50505050905090810190601f16801562000f2a5780820380516001836020036101000a031916815260200191505b5060405250505094508073ffffffffffffffffffffffffffffffffffffffff166355f150f16040518163ffffffff1660e01b815260040160006040518083038186803b15801562000f7a57600080fd5b505afa15801562000f8f573d6000803e3d6000fd5b505050506040513d6000823e3d601f19601f82011682018060405250602081101562000fba57600080fd5b810190808051604051939291908464010000000082111562000fdb57600080fd5b8382019150602082018581111562000ff257600080fd5b82518660018202830111640100000000821117156200101057600080fd5b8083526020830192505050908051906020019080838360005b838110156200104657808201518184015260208101905062001029565b50505050905090810190601f168015620010745780820380516001836020036101000a031916815260200191505b5060405250505093508073ffffffffffffffffffffffffffffffffffffffff16631f6b1d226040518163ffffffff1660e01b815260040160206040518083038186803b158015620010c457600080fd5b505afa158015620010d9573d6000803e3d6000fd5b505050506040513d6020811015620010f057600080fd5b810190808051906020019092919050505092508073ffffffffffffffffffffffffffffffffffffffff1663e19391f86040518163ffffffff1660e01b815260040160206040518083038186803b1580156200114a57600080fd5b505afa1580156200115f573d6000803e3d6000fd5b505050506040513d60208110156200117657600080fd5b81019080805190602001909291905050509150509193509193565b600033600073ffffffffffffffffffffffffffffffffffffffff16600360008373ffffffffffffffffffffffffffffffffffffffff1673ffffffffffffffffffffffffffffffffffffffff16815260200190815260200160002060009054906101000a900473ffffffffffffffffffffffffffffffffffffffff1673ffffffffffffffffffffffffffffffffffffffff1614156200127b576040517f08c379a000000000000000000000000000000000000000000000000000000000815260040180806020018281038252602381526020018062004f066023913960400191505060405180910390fd5b82600073ffffffffffffffffffffffffffffffffffffffff16600360008373ffffffffffffffffffffffffffffffffffffffff1673ffffffffffffffffffffffffffffffffffffffff16815260200190815260200160002060009054906101000a900473ffffffffffffffffffffffffffffffffffffffff1673ffffffffffffffffffffffffffffffffffffffff16141562001363576040517f08c379a000000000000000000000000000000000000000000000000000000000815260040180806020018281038252602381526020018062004f066023913960400191505060405180910390fd5b600360008573ffffffffffffffffffffffffffffffffffffffff1673ffffffffffffffffffffffffffffffffffffffff16815260200190815260200160002060009054906101000a900473ffffffffffffffffffffffffffffffffffffffff16600360003373ffffffffffffffffffffffffffffffffffffffff1673ffffffffffffffffffffffffffffffffffffffff16815260200190815260200160002060009054906101000a900473ffffffffffffffffffffffffffffffffffffffff1673ffffffffffffffffffffffffffffffffffffffff1663325a19f16040518163ffffffff1660e01b815260040160206040518083038186803b1580156200146957600080fd5b505afa1580156200147e573d6000803e3d6000fd5b505050506040513d60208110156200149557600080fd5b8101908080519060200190929190505050620014fd576040517f08c379a000000000000000000000000000000000000000000000000000000000815260040180806020018281038252602181526020018062004e746021913960400191505060405180910390fd5b600360003373ffffffffffffffffffffffffffffffffffffffff1673ffffffffffffffffffffffffffffffffffffffff16815260200190815260200160002060009054906101000a900473ffffffffffffffffffffffffffffffffffffffff1673ffffffffffffffffffffffffffffffffffffffff166302fb0c5e6040518163ffffffff1660e01b815260040160206040518083038186803b158015620015a357600080fd5b505afa158015620015b8573d6000803e3d6000fd5b505050506040513d6020811015620015cf57600080fd5b810190808051906020019092919050505062001637576040517f08c379a000000000000000000000000000000000000000000000000000000000815260040180806020018281038252602181526020018062004e956021913960400191505060405180910390fd5b8073ffffffffffffffffffffffffffffffffffffffff1663325a19f16040518163ffffffff1660e01b815260040160206040518083038186803b1580156200167e57600080fd5b505afa15801562001693573d6000803e3d6000fd5b505050506040513d6020811015620016aa57600080fd5b810190808051906020019092919050505062001712576040517f08c379a000000000000000000000000000000000000000000000000000000000815260040180806020018281038252602881526020018062004eb66028913960400191505060405180910390fd5b8073ffffffffffffffffffffffffffffffffffffffff166302fb0c5e6040518163ffffffff1660e01b815260040160206040518083038186803b1580156200175957600080fd5b505afa1580156200176e573d6000803e3d6000fd5b505050506040513d60208110156200178557600080fd5b8101908080519060200190929190505050620017ed576040517f08c379a000000000000000000000000000000000000000000000000000000000815260040180806020018281038252602881526020018062004ede6028913960400191505060405180910390fd5b600087873388604051620018019062003bc8565b8080602001806020018573ffffffffffffffffffffffffffffffffffffffff1673ffffffffffffffffffffffffffffffffffffffff1681526020018473ffffffffffffffffffffffffffffffffffffffff1673ffffffffffffffffffffffffffffffffffffffff168152602001838103835287818151815260200191508051906020019080838360005b83811015620018a85780820151818401526020810190506200188b565b50505050905090810190601f168015620018d65780820380516001836020036101000a031916815260200191505b50838103825286818151815260200191508051906020019080838360005b8381101562001911578082015181840152602081019050620018f4565b50505050905090810190601f1680156200193f5780820380516001836020036101000a031916815260200191505b509650505050505050604051809103906000f08015801562001965573d6000803e3d6000fd5b509050600360008773ffffffffffffffffffffffffffffffffffffffff1673ffffffffffffffffffffffffffffffffffffffff16815260200190815260200160002060009054906101000a900473ffffffffffffffffffffffffffffffffffffffff1673ffffffffffffffffffffffffffffffffffffffff166347cc1b1c826040518263ffffffff1660e01b8152600401808273ffffffffffffffffffffffffffffffffffffffff1673ffffffffffffffffffffffffffffffffffffffff168152602001915050600060405180830381600087803b15801562001a4757600080fd5b505af115801562001a5c573d6000803e3d6000fd5b5050505080600460008373ffffffffffffffffffffffffffffffffffffffff1673ffffffffffffffffffffffffffffffffffffffff16815260200190815260200160002060006101000a81548173ffffffffffffffffffffffffffffffffffffffff021916908373ffffffffffffffffffffffffffffffffffffffff1602179055508073ffffffffffffffffffffffffffffffffffffffff167f4ceea6b21cdad1c331f444b7e6b58ad490efd94515e032a52704cb5c54e741ca60405160405180910390a2505050509392505050565b6000606080600080606062001b406200201e565b9050600081519050808810801562001b59575060008810155b62001bb0576040517f08c379a000000000000000000000000000000000000000000000000000000000815260040180806020018281038252604381526020018062004df16043913960600191505060405180910390fd5b600060046000848b8151811062001bc357fe5b602002602001015173ffffffffffffffffffffffffffffffffffffffff1673ffffffffffffffffffffffffffffffffffffffff16815260200190815260200160002060009054906101000a900473ffffffffffffffffffffffffffffffffffffffff16905082898151811062001c3557fe5b602002602001015197508073ffffffffffffffffffffffffffffffffffffffff166351ff48476040518163ffffffff1660e01b815260040160006040518083038186803b15801562001c8657600080fd5b505afa15801562001c9b573d6000803e3d6000fd5b505050506040513d6000823e3d601f19601f82011682018060405250602081101562001cc657600080fd5b810190808051604051939291908464010000000082111562001ce757600080fd5b8382019150602082018581111562001cfe57600080fd5b825186600182028301116401000000008211171562001d1c57600080fd5b8083526020830192505050908051906020019080838360005b8381101562001d5257808201518184015260208101905062001d35565b50505050905090810190601f16801562001d805780820380516001836020036101000a031916815260200191505b5060405250505096508073ffffffffffffffffffffffffffffffffffffffff166355f150f16040518163ffffffff1660e01b815260040160006040518083038186803b15801562001dd057600080fd5b505afa15801562001de5573d6000803e3d6000fd5b505050506040513d6000823e3d601f19601f82011682018060405250602081101562001e1057600080fd5b810190808051604051939291908464010000000082111562001e3157600080fd5b8382019150602082018581111562001e4857600080fd5b825186600182028301116401000000008211171562001e6657600080fd5b8083526020830192505050908051906020019080838360005b8381101562001e9c57808201518184015260208101905062001e7f565b50505050905090810190601f16801562001eca5780820380516001836020036101000a031916815260200191505b5060405250505095508073ffffffffffffffffffffffffffffffffffffffff16631f6b1d226040518163ffffffff1660e01b815260040160206040518083038186803b15801562001f1a57600080fd5b505afa15801562001f2f573d6000803e3d6000fd5b505050506040513d602081101562001f4657600080fd5b810190808051906020019092919050505094508073ffffffffffffffffffffffffffffffffffffffff1663e19391f86040518163ffffffff1660e01b815260040160206040518083038186803b15801562001fa057600080fd5b505afa15801562001fb5573d6000803e3d6000fd5b505050506040513d602081101562001fcc57600080fd5b8101908080519060200190929190505050935050505091939590929450565b60036020528060005260406000206000915054906101000a900473ffffffffffffffffffffffffffffffffffffffff1681565b606033600073ffffffffffffffffffffffffffffffffffffffff16600360008373ffffffffffffffffffffffffffffffffffffffff1673ffffffffffffffffffffffffffffffffffffffff16815260200190815260200160002060009054906101000a900473ffffffffffffffffffffffffffffffffffffffff1673ffffffffffffffffffffffffffffffffffffffff16141562002108576040517f08c379a000000000000000000000000000000000000000000000000000000000815260040180806020018281038252602381526020018062004f066023913960400191505060405180910390fd5b6000600360003373ffffffffffffffffffffffffffffffffffffffff1673ffffffffffffffffffffffffffffffffffffffff16815260200190815260200160002060009054906101000a900473ffffffffffffffffffffffffffffffffffffffff1690508073ffffffffffffffffffffffffffffffffffffffff166313f9ce07336040518263ffffffff1660e01b8152600401808273ffffffffffffffffffffffffffffffffffffffff1673ffffffffffffffffffffffffffffffffffffffff16815260200191505060006040518083038186803b158015620021ea57600080fd5b505afa158015620021ff573d6000803e3d6000fd5b505050506040513d6000823e3d601f19601f8201168201806040525060208110156200222a57600080fd5b81019080805160405193929190846401000000008211156200224b57600080fd5b838201915060208201858111156200226257600080fd5b82518660208202830111640100000000821117156200228057600080fd5b8083526020830192505050908051906020019060200280838360005b83811015620022b95780820151818401526020810190506200229c565b505050509050016040525050509250505090565b6000600154905090565b606060008060028054905084106200233b576040517f08c379a000000000000000000000000000000000000000000000000000000000815260040180806020018281038252604081526020018062004e346040913960400191505060405180910390fd5b60036000600286815481106200234d57fe5b9060005260206000200160009054906101000a900473ffffffffffffffffffffffffffffffffffffffff1673ffffffffffffffffffffffffffffffffffffffff1673ffffffffffffffffffffffffffffffffffffffff16815260200190815260200160002060009054906101000a900473ffffffffffffffffffffffffffffffffffffffff1673ffffffffffffffffffffffffffffffffffffffff166306fdde036040518163ffffffff1660e01b815260040160006040518083038186803b1580156200241957600080fd5b505afa1580156200242e573d6000803e3d6000fd5b505050506040513d6000823e3d601f19601f8201168201806040525060208110156200245957600080fd5b81019080805160405193929190846401000000008211156200247a57600080fd5b838201915060208201858111156200249157600080fd5b8251866001820283011164010000000082111715620024af57600080fd5b8083526020830192505050908051906020019080838360005b83811015620024e5578082015181840152602081019050620024c8565b50505050905090810190601f168015620025135780820380516001836020036101000a031916815260200191505b506040525050509250600284815481106200252a57fe5b9060005260206000200160009054906101000a900473ffffffffffffffffffffffffffffffffffffffff16915060036000600286815481106200256957fe5b9060005260206000200160009054906101000a900473ffffffffffffffffffffffffffffffffffffffff1673ffffffffffffffffffffffffffffffffffffffff1673ffffffffffffffffffffffffffffffffffffffff16815260200190815260200160002060009054906101000a900473ffffffffffffffffffffffffffffffffffffffff1673ffffffffffffffffffffffffffffffffffffffff166302fb0c5e6040518163ffffffff1660e01b815260040160206040518083038186803b1580156200263557600080fd5b505afa1580156200264a573d6000803e3d6000fd5b505050506040513d60208110156200266157600080fd5b810190808051906020019092919050505090509193909250565b6000620026888262002783565b156200277957600360008373ffffffffffffffffffffffffffffffffffffffff1673ffffffffffffffffffffffffffffffffffffffff16815260200190815260200160002060009054906101000a900473ffffffffffffffffffffffffffffffffffffffff1673ffffffffffffffffffffffffffffffffffffffff166302fb0c5e6040518163ffffffff1660e01b815260040160206040518083038186803b1580156200273457600080fd5b505afa15801562002749573d6000803e3d6000fd5b505050506040513d60208110156200276057600080fd5b810190808051906020019092919050505090506200277e565b600090505b919050565b60008073ffffffffffffffffffffffffffffffffffffffff16600360008473ffffffffffffffffffffffffffffffffffffffff1673ffffffffffffffffffffffffffffffffffffffff16815260200190815260200160002060009054906101000a900473ffffffffffffffffffffffffffffffffffffffff1673ffffffffffffffffffffffffffffffffffffffff1614159050919050565b6000809054906101000a900473ffffffffffffffffffffffffffffffffffffffff1681565b60008060009054906101000a900473ffffffffffffffffffffffffffffffffffffffff1673ffffffffffffffffffffffffffffffffffffffff163373ffffffffffffffffffffffffffffffffffffffff1614905090565b60028181548110620028a557fe5b906000526020600020016000915054906101000a900473ffffffffffffffffffffffffffffffffffffffff1681565b606081600073ffffffffffffffffffffffffffffffffffffffff16600360008373ffffffffffffffffffffffffffffffffffffffff1673ffffffffffffffffffffffffffffffffffffffff16815260200190815260200160002060009054906101000a900473ffffffffffffffffffffffffffffffffffffffff1673ffffffffffffffffffffffffffffffffffffffff161415620029be576040517f08c379a000000000000000000000000000000000000000000000000000000000815260040180806020018281038252602381526020018062004f066023913960400191505060405180910390fd5b33600073ffffffffffffffffffffffffffffffffffffffff16600360008373ffffffffffffffffffffffffffffffffffffffff1673ffffffffffffffffffffffffffffffffffffffff16815260200190815260200160002060009054906101000a900473ffffffffffffffffffffffffffffffffffffffff1673ffffffffffffffffffffffffffffffffffffffff16141562002aa6576040517f08c379a000000000000000000000000000000000000000000000000000000000815260040180806020018281038252602381526020018062004f066023913960400191505060405180910390fd5b600360008573ffffffffffffffffffffffffffffffffffffffff1673ffffffffffffffffffffffffffffffffffffffff16815260200190815260200160002060009054906101000a900473ffffffffffffffffffffffffffffffffffffffff16600360003373ffffffffffffffffffffffffffffffffffffffff1673ffffffffffffffffffffffffffffffffffffffff16815260200190815260200160002060009054906101000a900473ffffffffffffffffffffffffffffffffffffffff1673ffffffffffffffffffffffffffffffffffffffff1663325a19f16040518163ffffffff1660e01b815260040160206040518083038186803b15801562002bac57600080fd5b505afa15801562002bc1573d6000803e3d6000fd5b505050506040513d602081101562002bd857600080fd5b810190808051906020019092919050505062002c40576040517f08c379a000000000000000000000000000000000000000000000000000000000815260040180806020018281038252602181526020018062004e746021913960400191505060405180910390fd5b600360003373ffffffffffffffffffffffffffffffffffffffff1673ffffffffffffffffffffffffffffffffffffffff16815260200190815260200160002060009054906101000a900473ffffffffffffffffffffffffffffffffffffffff1673ffffffffffffffffffffffffffffffffffffffff166302fb0c5e6040518163ffffffff1660e01b815260040160206040518083038186803b15801562002ce657600080fd5b505afa15801562002cfb573d6000803e3d6000fd5b505050506040513d602081101562002d1257600080fd5b810190808051906020019092919050505062002d7a576040517f08c379a000000000000000000000000000000000000000000000000000000000815260040180806020018281038252602181526020018062004e956021913960400191505060405180910390fd5b8073ffffffffffffffffffffffffffffffffffffffff1663325a19f16040518163ffffffff1660e01b815260040160206040518083038186803b15801562002dc157600080fd5b505afa15801562002dd6573d6000803e3d6000fd5b505050506040513d602081101562002ded57600080fd5b810190808051906020019092919050505062002e55576040517f08c379a000000000000000000000000000000000000000000000000000000000815260040180806020018281038252602881526020018062004eb66028913960400191505060405180910390fd5b8073ffffffffffffffffffffffffffffffffffffffff166302fb0c5e6040518163ffffffff1660e01b815260040160206040518083038186803b15801562002e9c57600080fd5b505afa15801562002eb1573d6000803e3d6000fd5b505050506040513d602081101562002ec857600080fd5b810190808051906020019092919050505062002f30576040517f08c379a000000000000000000000000000000000000000000000000000000000815260040180806020018281038252602881526020018062004ede6028913960400191505060405180910390fd5b600360008673ffffffffffffffffffffffffffffffffffffffff1673ffffffffffffffffffffffffffffffffffffffff16815260200190815260200160002060009054906101000a900473ffffffffffffffffffffffffffffffffffffffff1673ffffffffffffffffffffffffffffffffffffffff1663ac9e14f56040518163ffffffff1660e01b815260040160006040518083038186803b15801562002fd657600080fd5b505afa15801562002feb573d6000803e3d6000fd5b505050506040513d6000823e3d601f19601f8201168201806040525060208110156200301657600080fd5b81019080805160405193929190846401000000008211156200303757600080fd5b838201915060208201858111156200304e57600080fd5b82518660018202830111640100000000821117156200306c57600080fd5b8083526020830192505050908051906020019080838360005b83811015620030a257808201518184015260208101905062003085565b50505050905090810190601f168015620030d05780820380516001836020036101000a031916815260200191505b506040525050509350505050919050565b3373ffffffffffffffffffffffffffffffffffffffff166000809054906101000a900473ffffffffffffffffffffffffffffffffffffffff1673ffffffffffffffffffffffffffffffffffffffff1614620031a4576040517f08c379a00000000000000000000000000000000000000000000000000000000081526004018080602001828103825260138152602001807f596f7520617265204e6f7420416c6c6f7765640000000000000000000000000081525060200191505060405180910390fd5b60008282604051620031b69062003bd6565b808373ffffffffffffffffffffffffffffffffffffffff1673ffffffffffffffffffffffffffffffffffffffff1681526020018060200180602001838103835284818151815260200191508051906020019080838360005b838110156200322b5780820151818401526020810190506200320e565b50505050905090810190601f168015620032595780820380516001836020036101000a031916815260200191505b50838103825260008152602001602001945050505050604051809103906000f0801580156200328c573d6000803e3d6000fd5b50905080600360008573ffffffffffffffffffffffffffffffffffffffff1673ffffffffffffffffffffffffffffffffffffffff16815260200190815260200160002060006101000a81548173ffffffffffffffffffffffffffffffffffffffff021916908373ffffffffffffffffffffffffffffffffffffffff1602179055506002839080600181540180825580915050600190039060005260206000200160009091909190916101000a81548173ffffffffffffffffffffffffffffffffffffffff021916908373ffffffffffffffffffffffffffffffffffffffff160217905550600160008154809291906001019190505550505050565b33600073ffffffffffffffffffffffffffffffffffffffff16600360008373ffffffffffffffffffffffffffffffffffffffff1673ffffffffffffffffffffffffffffffffffffffff16815260200190815260200160002060009054906101000a900473ffffffffffffffffffffffffffffffffffffffff1673ffffffffffffffffffffffffffffffffffffffff1614156200346f576040517f08c379a000000000000000000000000000000000000000000000000000000000815260040180806020018281038252602381526020018062004f066023913960400191505060405180910390fd5b600360003373ffffffffffffffffffffffffffffffffffffffff1673ffffffffffffffffffffffffffffffffffffffff16815260200190815260200160002060009054906101000a900473ffffffffffffffffffffffffffffffffffffffff1673ffffffffffffffffffffffffffffffffffffffff1663325a19f16040518163ffffffff1660e01b815260040160206040518083038186803b1580156200351557600080fd5b505afa1580156200352a573d6000803e3d6000fd5b505050506040513d60208110156200354157600080fd5b810190808051906020019092919050505015620037cd576000600360003373ffffffffffffffffffffffffffffffffffffffff1673ffffffffffffffffffffffffffffffffffffffff16815260200190815260200160002060009054906101000a900473ffffffffffffffffffffffffffffffffffffffff1690508073ffffffffffffffffffffffffffffffffffffffff166302fb0c5e6040518163ffffffff1660e01b815260040160206040518083038186803b1580156200360357600080fd5b505afa15801562003618573d6000803e3d6000fd5b505050506040513d60208110156200362f57600080fd5b810190808051906020019092919050505062003782578073ffffffffffffffffffffffffffffffffffffffff16630f15f4c06040518163ffffffff1660e01b8152600401600060405180830381600087803b1580156200368e57600080fd5b505af1158015620036a3573d6000803e3d6000fd5b505050508073ffffffffffffffffffffffffffffffffffffffff16631ce16af8846040518263ffffffff1660e01b81526004018080602001828103825283818151815260200191508051906020019080838360005b8381101562003715578082015181840152602081019050620036f8565b50505050905090810190601f168015620037435780820380516001836020036101000a031916815260200191505b5092505050600060405180830381600087803b1580156200376357600080fd5b505af115801562003778573d6000803e3d6000fd5b50505050620037c6565b3373ffffffffffffffffffffffffffffffffffffffff167fbf7d116f77e0d3be2303ec3ca2af1384e1eb92be19c239d565d5845c62d6b05c60405160405180910390a25b5062003811565b3373ffffffffffffffffffffffffffffffffffffffff167f1de9c2364187e2be709ce388547328dcb61a71b4490667b394b07b58caf9debc60405160405180910390a25b5050565b60046020528060005260406000206000915054906101000a900473ffffffffffffffffffffffffffffffffffffffff1681565b6060600082600073ffffffffffffffffffffffffffffffffffffffff16600360008373ffffffffffffffffffffffffffffffffffffffff1673ffffffffffffffffffffffffffffffffffffffff16815260200190815260200160002060009054906101000a900473ffffffffffffffffffffffffffffffffffffffff1673ffffffffffffffffffffffffffffffffffffffff16141562003934576040517f08c379a000000000000000000000000000000000000000000000000000000000815260040180806020018281038252602381526020018062004f066023913960400191505060405180910390fd5b600360008573ffffffffffffffffffffffffffffffffffffffff1673ffffffffffffffffffffffffffffffffffffffff16815260200190815260200160002060009054906101000a900473ffffffffffffffffffffffffffffffffffffffff1673ffffffffffffffffffffffffffffffffffffffff166306fdde036040518163ffffffff1660e01b815260040160006040518083038186803b158015620039da57600080fd5b505afa158015620039ef573d6000803e3d6000fd5b505050506040513d6000823e3d601f19601f82011682018060405250602081101562003a1a57600080fd5b810190808051604051939291908464010000000082111562003a3b57600080fd5b8382019150602082018581111562003a5257600080fd5b825186600182028301116401000000008211171562003a7057600080fd5b8083526020830192505050908051906020019080838360005b8381101562003aa657808201518184015260208101905062003a89565b50505050905090810190601f16801562003ad45780820380516001836020036101000a031916815260200191505b506040525050509250600360008573ffffffffffffffffffffffffffffffffffffffff1673ffffffffffffffffffffffffffffffffffffffff16815260200190815260200160002060009054906101000a900473ffffffffffffffffffffffffffffffffffffffff1673ffffffffffffffffffffffffffffffffffffffff166302fb0c5e6040518163ffffffff1660e01b815260040160206040518083038186803b15801562003b8357600080fd5b505afa15801562003b98573d6000803e3d6000fd5b505050506040513d602081101562003baf57600080fd5b8101908080519060200190929190505050915050915091565b6106d28062003be583390190565b610b3a80620042b78339019056fe608060405234801561001057600080fd5b506040516106d23803806106d28339818101604052608081101561003357600080fd5b810190808051604051939291908464010000000082111561005357600080fd5b8382019150602082018581111561006957600080fd5b825186600182028301116401000000008211171561008657600080fd5b8083526020830192505050908051906020019080838360005b838110156100ba57808201518184015260208101905061009f565b50505050905090810190601f1680156100e75780820380516001836020036101000a031916815260200191505b506040526020018051604051939291908464010000000082111561010a57600080fd5b8382019150602082018581111561012057600080fd5b825186600182028301116401000000008211171561013d57600080fd5b8083526020830192505050908051906020019080838360005b83811015610171578082015181840152602081019050610156565b50505050905090810190601f16801561019e5780820380516001836020036101000a031916815260200191505b50604052602001805190602001909291908051906020019092919050505083600090805190602001906101d2929190610275565b5082600190805190602001906101e9929190610275565b5081600260006101000a81548173ffffffffffffffffffffffffffffffffffffffff021916908373ffffffffffffffffffffffffffffffffffffffff16021790555080600360006101000a81548173ffffffffffffffffffffffffffffffffffffffff021916908373ffffffffffffffffffffffffffffffffffffffff1602179055505050505061031a565b828054600181600116156101000203166002900490600052602060002090601f016020900481019282601f106102b657805160ff19168380011785556102e4565b828001600101855582156102e4579182015b828111156102e35782518255916020019190600101906102c8565b5b5090506102f191906102f5565b5090565b61031791905b808211156103135760008160009055506001016102fb565b5090565b90565b6103a9806103296000396000f3fe608060405234801561001057600080fd5b506004361061004c5760003560e01c80631f6b1d221461005157806351ff48471461009b57806355f150f11461011e578063e19391f8146101a1575b600080fd5b6100596101eb565b604051808273ffffffffffffffffffffffffffffffffffffffff1673ffffffffffffffffffffffffffffffffffffffff16815260200191505060405180910390f35b6100a3610211565b6040518080602001828103825283818151815260200191508051906020019080838360005b838110156100e35780820151818401526020810190506100c8565b50505050905090810190601f1680156101105780820380516001836020036101000a031916815260200191505b509250505060405180910390f35b6101266102af565b6040518080602001828103825283818151815260200191508051906020019080838360005b8381101561016657808201518184015260208101905061014b565b50505050905090810190601f1680156101935780820380516001836020036101000a031916815260200191505b509250505060405180910390f35b6101a961034d565b604051808273ffffffffffffffffffffffffffffffffffffffff1673ffffffffffffffffffffffffffffffffffffffff16815260200191505060405180910390f35b600260009054906101000a900473ffffffffffffffffffffffffffffffffffffffff1681565b60008054600181600116156101000203166002900480601f0160208091040260200160405190810160405280929190818152602001828054600181600116156101000203166002900480156102a75780601f1061027c576101008083540402835291602001916102a7565b820191906000526020600020905b81548152906001019060200180831161028a57829003601f168201915b505050505081565b60018054600181600116156101000203166002900480601f0160208091040260200160405190810160405280929190818152602001828054600181600116156101000203166002900480156103455780601f1061031a57610100808354040283529160200191610345565b820191906000526020600020905b81548152906001019060200180831161032857829003601f168201915b505050505081565b600360009054906101000a900473ffffffffffffffffffffffffffffffffffffffff168156fea2646970667358221220e37431ae59d403e0ce7d9e439807e47192041dd5fb224c9c4299e353a32de0c664736f6c63430006080033608060405234801561001057600080fd5b50604051610b3a380380610b3a8339818101604052606081101561003357600080fd5b81019080805190602001909291908051604051939291908464010000000082111561005d57600080fd5b8382019150602082018581111561007357600080fd5b825186600182028301116401000000008211171561009057600080fd5b8083526020830192505050908051906020019080838360005b838110156100c45780820151818401526020810190506100a9565b50505050905090810190601f1680156100f15780820380516001836020036101000a031916815260200191505b506040526020018051604051939291908464010000000082111561011457600080fd5b8382019150602082018581111561012a57600080fd5b825186600182028301116401000000008211171561014757600080fd5b8083526020830192505050908051906020019080838360005b8381101561017b578082015181840152602081019050610160565b50505050905090810190601f1680156101a85780820380516001836020036101000a031916815260200191505b50604052505050826000806101000a81548173ffffffffffffffffffffffffffffffffffffffff021916908373ffffffffffffffffffffffffffffffffffffffff160217905550816001908051906020019061020592919061025b565b50806002908051906020019061021c92919061025b565b506001600360006101000a81548160ff0219169083151502179055506000600360016101000a81548160ff021916908315150217905550505050610300565b828054600181600116156101000203166002900490600052602060002090601f016020900481019282601f1061029c57805160ff19168380011785556102ca565b828001600101855582156102ca579182015b828111156102c95782518255916020019190600101906102ae565b5b5090506102d791906102db565b5090565b6102fd91905b808211156102f95760008160009055506001016102e1565b5090565b90565b61082b8061030f6000396000f3fe608060405234801561001057600080fd5b50600436106100935760003560e01c80631ce16af8116100665780631ce16af8146101e0578063325a19f11461029b57806347cc1b1c146102bd5780635dab242014610301578063ac9e14f51461034b57610093565b806302fb0c5e1461009857806306fdde03146100ba5780630f15f4c01461013d57806313f9ce0714610147575b600080fd5b6100a06103ce565b604051808215151515815260200191505060405180910390f35b6100c26103e1565b6040518080602001828103825283818151815260200191508051906020019080838360005b838110156101025780820151818401526020810190506100e7565b50505050905090810190601f16801561012f5780820380516001836020036101000a031916815260200191505b509250505060405180910390f35b61014561047f565b005b6101896004803603602081101561015d57600080fd5b81019080803573ffffffffffffffffffffffffffffffffffffffff16906020019092919050505061049c565b6040518080602001828103825283818151815260200191508051906020019060200280838360005b838110156101cc5780820151818401526020810190506101b1565b505050509050019250505060405180910390f35b610299600480360360208110156101f657600080fd5b810190808035906020019064010000000081111561021357600080fd5b82018360208201111561022557600080fd5b8035906020019184600183028401116401000000008311171561024757600080fd5b91908080601f016020809104026020016040519081016040528093929190818152602001838380828437600081840152601f19601f8201169050808301925050505050505091929192905050506105d1565b005b6102a36105eb565b604051808215151515815260200191505060405180910390f35b6102ff600480360360208110156102d357600080fd5b81019080803573ffffffffffffffffffffffffffffffffffffffff1690602001909291905050506105fe565b005b610309610664565b604051808273ffffffffffffffffffffffffffffffffffffffff1673ffffffffffffffffffffffffffffffffffffffff16815260200191505060405180910390f35b610353610689565b6040518080602001828103825283818151815260200191508051906020019080838360005b83811015610393578082015181840152602081019050610378565b50505050905090810190601f1680156103c05780820380516001836020036101000a031916815260200191505b509250505060405180910390f35b600360019054906101000a900460ff1681565b60018054600181600116156101000203166002900480601f0160208091040260200160405190810160405280929190818152602001828054600181600116156101000203166002900480156104775780601f1061044c57610100808354040283529160200191610477565b820191906000526020600020905b81548152906001019060200180831161045a57829003601f168201915b505050505081565b6001600360016101000a81548160ff021916908315150217905550565b60606000809054906101000a900473ffffffffffffffffffffffffffffffffffffffff1673ffffffffffffffffffffffffffffffffffffffff168273ffffffffffffffffffffffffffffffffffffffff1614610543576040517f08c379a00000000000000000000000000000000000000000000000000000000081526004018080602001828103825260258152602001806107d16025913960400191505060405180910390fd5b60048054806020026020016040519081016040528092919081815260200182805480156105c557602002820191906000526020600020905b8160009054906101000a900473ffffffffffffffffffffffffffffffffffffffff1673ffffffffffffffffffffffffffffffffffffffff168152602001906001019080831161057b575b50505050509050919050565b80600290805190602001906105e792919061072b565b5050565b600360009054906101000a900460ff1681565b6004819080600181540180825580915050600190039060005260206000200160009091909190916101000a81548173ffffffffffffffffffffffffffffffffffffffff021916908373ffffffffffffffffffffffffffffffffffffffff16021790555050565b6000809054906101000a900473ffffffffffffffffffffffffffffffffffffffff1681565b606060028054600181600116156101000203166002900480601f0160208091040260200160405190810160405280929190818152602001828054600181600116156101000203166002900480156107215780601f106106f657610100808354040283529160200191610721565b820191906000526020600020905b81548152906001019060200180831161070457829003601f168201915b5050505050905090565b828054600181600116156101000203166002900490600052602060002090601f016020900481019282601f1061076c57805160ff191683800117855561079a565b8280016001018555821561079a579182015b8281111561079957825182559160200191906001019061077e565b5b5090506107a791906107ab565b5090565b6107cd91905b808211156107c95760008160009055506001016107b1565b5090565b9056fe596f7520617265206e6f7420746865204f776e6572204f662074686973204163636f756e74a2646970667358221220245ee25f9087d8f06e7c0138bdf88d9d0b03ce1718bae92fd0e55deda1f224da64736f6c63430006080033676574446f632066756e6374696f6e3a2072657175657374206120646f63756d656e742074686174206f7574206f662074686520617272617920626f756e6472792e2e676574436f6d70616e792066756e6374696f6e3a207265717565737420616e20696e646578206f7574206f662074686520617272617920626f756e6472792e2e596f7572206163636f756e74206973206e6f742072656769737472656420796574596f7572206163636f756e74206973206e6f74206163746976617465642079657454686520746172676574206163636f756e7420776173206e6f74207265676973747265642079657474686520746172676574206163636f756e7420776173206e6f74206163746976617465642079657454686973204163636f756e7420776173206e6f74207265676973747265642079657421a26469706673582212204c3613c6589bbd0bee04925775d47dbb25c12f6f02a831dccd89a700c2d1d15b64736f6c63430006080033",
  "immutableReferences": {},
  "source": "pragma solidity ^0.6.8;\r\nimport \"./Doc.sol\";\r\nimport \"./Ownable.sol\";\r\nimport \"./Company.sol\";\r\n\r\ncontract MyProject is Ownable {\r\n    uint256 companies_index;\r\n    address[] public companies_list;\r\n    mapping(address => Company) public companies; \r\n    mapping(address => Doc) public docs;\r\n    event successRegis(uint256 _companies_index);\r\n    event alreadyRegis(address indexed _account);\r\n    event inactiveCompany(address indexed _account);\r\n    event unregisteredCompany(address indexed _account);\r\n    event allCompanies(string _name, address indexed _account);\r\n    event docCreated(address indexed doc_id);\r\n    modifier DCE(address _address){\r\n        require(address(companies[_address]) != 0x0000000000000000000000000000000000000000, \"This Account was not registred yet!\");\r\n        _;\r\n    }\r\n    modifier DCA(address _address){\r\n        require(companies[msg.sender].active(), \"This Company is Not Active Yet\");\r\n        _;\r\n    }\r\n    modifier isRegAndActive(Company com){\r\n        require(companies[msg.sender].created(), \"Your account is not registred yet\");\r\n        require(companies[msg.sender].active(), \"Your account is not activated yet\");\r\n        require(com.created(), \"The target account was not registred yet\");\r\n        require(com.active(), \"the target account was not activated yet\");\r\n        _;\r\n    }\r\n    function regCompany(address _account, string memory _name) public onlyOwner{\r\n            Company company =  new Company(_account, _name,\"\");\r\n            companies[_account] = company;\r\n            companies_list.push(_account);\r\n            companies_index++;\r\n    }\r\n    function activateComp(string memory _pk) public DCE(msg.sender){\r\n        if(companies[msg.sender].created()){\r\n            Company com = companies[msg.sender];\r\n            if(!com.active()){\r\n                com.activate();\r\n                com.setPK(_pk);\r\n            }\r\n            else{\r\n                emit inactiveCompany(msg.sender);\r\n            }\r\n        }\r\n        else{\r\n            emit unregisteredCompany(msg.sender);\r\n        }\r\n    }\r\n    function createDoc(string memory _signature, string memory desc, address _to_address) public DCE(msg.sender) DCE(_to_address) isRegAndActive(companies[_to_address]) returns(address){\r\n        Doc doc = new Doc(_signature, desc, msg.sender, _to_address);\r\n        companies[_to_address].pushDoc(address(doc));\r\n        docs[address(doc)] = doc;\r\n        emit docCreated(address(doc));\r\n    }\r\n    function doesCompEx(address _address) public view returns(bool){\r\n        return(address(companies[_address]) != 0x0000000000000000000000000000000000000000);\r\n    }\r\n    function doesCompActive(address _address) view external returns(bool) {\r\n        if(doesCompEx(_address)){\r\n            return(companies[_address].active());\r\n        }\r\n        else{\r\n            return false;\r\n        }\r\n    }\r\n    function getCompaniesNum() public view returns(uint256){\r\n        return (companies_index);\r\n    }\r\n    function getCompanyPK(address _address) public DCE(_address) DCE(msg.sender)\r\n    isRegAndActive(companies[_address])view returns(string memory){\r\n        return(companies[_address].getPK());\r\n    }\r\n    function getCompDocsArr() public DCE(msg.sender) view returns( address[] memory arr ){\r\n        Company c = companies[msg.sender];\r\n        return c.getRecDocsArr(msg.sender);\r\n    }\r\n    function getDoc(uint _docIndex) public view returns(address id, string memory signature, string memory desc, address from_address, address to_address)   {\r\n        address[] memory arr = getCompDocsArr();\r\n        uint len = arr.length;\r\n        require((_docIndex < len) && (_docIndex >= 0) , \"getDoc function: request a document that out of the array boundry..\");\r\n        \r\n        Doc doc = docs[address(arr[_docIndex])];\r\n        id = address(arr[_docIndex]);\r\n        signature = doc.signature();\r\n        desc = doc.desc();\r\n        from_address = doc.from_address();\r\n        to_address = doc.to_address();\r\n    }\r\n    function getDocByAdd(address add) public view returns(string memory signature, string memory desc, address from_address, address to_address){\r\n        Doc doc = docs[add];\r\n        signature = doc.signature();\r\n        desc = doc.desc();\r\n        from_address = doc.from_address();\r\n        to_address = doc.to_address();\r\n    }\r\n    function getCompany(uint256 comp_index) public view returns(string memory _name, address _address, bool _active){\r\n        require(comp_index < companies_list.length, \"getCompany function: request an index out of the array boundry..\");\r\n        _name = companies[companies_list[comp_index]].name();\r\n        _address = companies_list[comp_index];\r\n        _active = companies[companies_list[comp_index]].active();\r\n    }\r\n    function getCompanyByAddress(address adres) public view DCE(adres) returns(string memory _name, bool _active) {\r\n        _name = companies[adres].name();\r\n        _active = companies[adres].active();\r\n    }\r\n}",
  "sourcePath": "C:\\Users\\hasan\\Desktop\\DocsExc\\contracts\\MyProject.sol",
  "compiler": {
    "name": "solc",
    "version": "0.6.8+commit.0bbfe453.Emscripten.clang"
  },
  "schemaVersion": "3.2.2",
  "updatedAt": "2020-09-10T07:45:40.880Z",
  "networkType": "ethereum",
  "devdoc": {
    "methods": {}
  },
  "userdoc": {
    "methods": {}
  }
}