{
  "contractName": "MyProject",
  "abi": [
    {
      "anonymous": false,
      "inputs": [
        {
          "indexed": false,
          "internalType": "string",
          "name": "_name",
          "type": "string"
        },
        {
          "indexed": true,
          "internalType": "address",
          "name": "_account",
          "type": "address"
        }
      ],
      "name": "allCompanies",
      "type": "event"
    },
    {
      "anonymous": false,
      "inputs": [
        {
          "indexed": true,
          "internalType": "address",
          "name": "_account",
          "type": "address"
        }
      ],
      "name": "alreadyRegis",
      "type": "event"
    },
    {
      "anonymous": false,
      "inputs": [
        {
          "indexed": true,
          "internalType": "address",
          "name": "doc_id",
          "type": "address"
        }
      ],
      "name": "docCreated",
      "type": "event"
    },
    {
      "anonymous": false,
      "inputs": [
        {
          "indexed": true,
          "internalType": "address",
          "name": "_account",
          "type": "address"
        }
      ],
      "name": "inactiveCompany",
      "type": "event"
    },
    {
      "anonymous": false,
      "inputs": [
        {
          "indexed": false,
          "internalType": "uint256",
          "name": "_companies_index",
          "type": "uint256"
        }
      ],
      "name": "successRegis",
      "type": "event"
    },
    {
      "anonymous": false,
      "inputs": [
        {
          "indexed": true,
          "internalType": "address",
          "name": "_account",
          "type": "address"
        }
      ],
      "name": "unregisteredCompany",
      "type": "event"
    },
    {
      "inputs": [
        {
          "internalType": "address",
          "name": "",
          "type": "address"
        }
      ],
      "name": "companies",
      "outputs": [
        {
          "internalType": "contract Company",
          "name": "",
          "type": "address"
        }
      ],
      "stateMutability": "view",
      "type": "function",
      "constant": true
    },
    {
      "inputs": [
        {
          "internalType": "uint256",
          "name": "",
          "type": "uint256"
        }
      ],
      "name": "companies_list",
      "outputs": [
        {
          "internalType": "address",
          "name": "",
          "type": "address"
        }
      ],
      "stateMutability": "view",
      "type": "function",
      "constant": true
    },
    {
      "inputs": [
        {
          "internalType": "address",
          "name": "",
          "type": "address"
        }
      ],
      "name": "docs",
      "outputs": [
        {
          "internalType": "contract Doc",
          "name": "",
          "type": "address"
        }
      ],
      "stateMutability": "view",
      "type": "function",
      "constant": true
    },
    {
      "inputs": [],
      "name": "isOwner",
      "outputs": [
        {
          "internalType": "bool",
          "name": "",
          "type": "bool"
        }
      ],
      "stateMutability": "view",
      "type": "function",
      "constant": true
    },
    {
      "inputs": [],
      "name": "owner",
      "outputs": [
        {
          "internalType": "address",
          "name": "",
          "type": "address"
        }
      ],
      "stateMutability": "view",
      "type": "function",
      "constant": true
    },
    {
      "inputs": [
        {
          "internalType": "address",
          "name": "_account",
          "type": "address"
        },
        {
          "internalType": "string",
          "name": "_name",
          "type": "string"
        }
      ],
      "name": "regCompany",
      "outputs": [],
      "stateMutability": "nonpayable",
      "type": "function"
    },
    {
      "inputs": [
        {
          "internalType": "string",
          "name": "_pk",
          "type": "string"
        }
      ],
      "name": "activateComp",
      "outputs": [],
      "stateMutability": "nonpayable",
      "type": "function"
    },
    {
      "inputs": [
        {
          "internalType": "string",
          "name": "_signature",
          "type": "string"
        },
        {
          "internalType": "address",
          "name": "_to_address",
          "type": "address"
        }
      ],
      "name": "createDoc",
      "outputs": [
        {
          "internalType": "address",
          "name": "",
          "type": "address"
        }
      ],
      "stateMutability": "nonpayable",
      "type": "function"
    },
    {
      "inputs": [
        {
          "internalType": "address",
          "name": "_address",
          "type": "address"
        }
      ],
      "name": "doesCompEx",
      "outputs": [
        {
          "internalType": "bool",
          "name": "",
          "type": "bool"
        }
      ],
      "stateMutability": "view",
      "type": "function",
      "constant": true
    },
    {
      "inputs": [
        {
          "internalType": "address",
          "name": "_address",
          "type": "address"
        }
      ],
      "name": "doesCompActive",
      "outputs": [
        {
          "internalType": "bool",
          "name": "",
          "type": "bool"
        }
      ],
      "stateMutability": "view",
      "type": "function",
      "constant": true
    },
    {
      "inputs": [],
      "name": "getCompaniesNum",
      "outputs": [
        {
          "internalType": "uint256",
          "name": "",
          "type": "uint256"
        }
      ],
      "stateMutability": "view",
      "type": "function",
      "constant": true
    },
    {
      "inputs": [
        {
          "internalType": "address",
          "name": "_address",
          "type": "address"
        }
      ],
      "name": "getCompanyPK",
      "outputs": [
        {
          "internalType": "string",
          "name": "",
          "type": "string"
        }
      ],
      "stateMutability": "view",
      "type": "function",
      "constant": true
    },
    {
      "inputs": [],
      "name": "getCompDocsArr",
      "outputs": [
        {
          "internalType": "address[]",
          "name": "arr",
          "type": "address[]"
        }
      ],
      "stateMutability": "view",
      "type": "function",
      "constant": true
    },
    {
      "inputs": [
        {
          "internalType": "uint256",
          "name": "_docIndex",
          "type": "uint256"
        }
      ],
      "name": "getDoc",
      "outputs": [
        {
          "internalType": "address",
          "name": "id",
          "type": "address"
        },
        {
          "internalType": "string",
          "name": "signature",
          "type": "string"
        },
        {
          "internalType": "address",
          "name": "from_address",
          "type": "address"
        },
        {
          "internalType": "address",
          "name": "to_address",
          "type": "address"
        }
      ],
      "stateMutability": "view",
      "type": "function",
      "constant": true
    },
    {
      "inputs": [
        {
          "internalType": "uint256",
          "name": "comp_index",
          "type": "uint256"
        }
      ],
      "name": "getCompany",
      "outputs": [
        {
          "internalType": "string",
          "name": "_name",
          "type": "string"
        },
        {
          "internalType": "address",
          "name": "_address",
          "type": "address"
        },
        {
          "internalType": "bool",
          "name": "_active",
          "type": "bool"
        }
      ],
      "stateMutability": "view",
      "type": "function",
      "constant": true
    }
  ],
  "bytecode": "0x608060405234801561001057600080fd5b50336000806101000a81548173ffffffffffffffffffffffffffffffffffffffff021916908373ffffffffffffffffffffffffffffffffffffffff16021790555061408c806100606000396000f3fe60806040523480156200001157600080fd5b50600436106200010c5760003560e01c80637715c8a311620000a5578063b442ea46116200006f578063b442ea46146200070c578063daeca11514620007cf578063dc50d11f14620008b0578063eb4d2ec11462000971576200010c565b80637715c8a314620005cc5780638da5cb5b146200062b5780638f32d59b14620006775780639294a45a146200069b576200010c565b80634fcf999311620000e75780634fcf9993146200034157806357d1391714620003615780635b42bd10146200044c57806372395f0c14620004ab576200010c565b80632ba665e51462000111578063355e6ce814620002575780633c93162014620002de575b600080fd5b62000140600480360360208110156200012957600080fd5b8101908080359060200190929190505050620009f8565b604051808573ffffffffffffffffffffffffffffffffffffffff1673ffffffffffffffffffffffffffffffffffffffff168152602001806020018473ffffffffffffffffffffffffffffffffffffffff1673ffffffffffffffffffffffffffffffffffffffff1681526020018373ffffffffffffffffffffffffffffffffffffffff1673ffffffffffffffffffffffffffffffffffffffff168152602001828103825285818151815260200191508051906020019080838360005b8381101562000218578082015181840152602081019050620001fb565b50505050905090810190601f168015620002465780820380516001836020036101000a031916815260200191505b509550505050505060405180910390f35b6200029c600480360360208110156200026f57600080fd5b81019080803573ffffffffffffffffffffffffffffffffffffffff16906020019092919050505062000d6a565b604051808273ffffffffffffffffffffffffffffffffffffffff1673ffffffffffffffffffffffffffffffffffffffff16815260200191505060405180910390f35b620002e862000d9d565b6040518080602001828103825283818151815260200191508051906020019060200280838360005b838110156200032d57808201518184015260208101905062000310565b505050509050019250505060405180910390f35b6200034b6200104c565b6040518082815260200191505060405180910390f35b62000390600480360360208110156200037957600080fd5b810190808035906020019092919050505062001056565b60405180806020018473ffffffffffffffffffffffffffffffffffffffff1673ffffffffffffffffffffffffffffffffffffffff16815260200183151515158152602001828103825285818151815260200191508051906020019080838360005b838110156200040e578082015181840152602081019050620003f1565b50505050905090810190601f1680156200043c5780820380516001836020036101000a031916815260200191505b5094505050505060405180910390f35b62000491600480360360208110156200046457600080fd5b81019080803573ffffffffffffffffffffffffffffffffffffffff169060200190929190505050620013fa565b604051808215151515815260200191505060405180910390f35b6200058a60048036036040811015620004c357600080fd5b8101908080359060200190640100000000811115620004e157600080fd5b820183602082011115620004f457600080fd5b803590602001918460018302840111640100000000831117156200051757600080fd5b91908080601f016020809104026020016040519081016040528093929190818152602001838380828437600081840152601f19601f820116905080830192505050505050509192919290803573ffffffffffffffffffffffffffffffffffffffff16906020019092919050505062001502565b604051808273ffffffffffffffffffffffffffffffffffffffff1673ffffffffffffffffffffffffffffffffffffffff16815260200191505060405180910390f35b6200061160048036036020811015620005e457600080fd5b81019080803573ffffffffffffffffffffffffffffffffffffffff16906020019092919050505062001e2c565b604051808215151515815260200191505060405180910390f35b6200063562001ec4565b604051808273ffffffffffffffffffffffffffffffffffffffff1673ffffffffffffffffffffffffffffffffffffffff16815260200191505060405180910390f35b6200068162001ee9565b604051808215151515815260200191505060405180910390f35b620006ca60048036036020811015620006b357600080fd5b810190808035906020019092919050505062001f40565b604051808273ffffffffffffffffffffffffffffffffffffffff1673ffffffffffffffffffffffffffffffffffffffff16815260200191505060405180910390f35b62000751600480360360208110156200072457600080fd5b81019080803573ffffffffffffffffffffffffffffffffffffffff16906020019092919050505062001f7d565b6040518080602001828103825283818151815260200191508051906020019080838360005b838110156200079357808201518184015260208101905062000776565b50505050905090810190601f168015620007c15780820380516001836020036101000a031916815260200191505b509250505060405180910390f35b620008ae60048036036040811015620007e757600080fd5b81019080803573ffffffffffffffffffffffffffffffffffffffff169060200190929190803590602001906401000000008111156200082557600080fd5b8201836020820111156200083857600080fd5b803590602001918460018302840111640100000000831117156200085b57600080fd5b91908080601f016020809104026020016040519081016040528093929190818152602001838380828437600081840152601f19601f8201169050808301925050505050505091929192905050506200278a565b005b6200096f60048036036020811015620008c857600080fd5b8101908080359060200190640100000000811115620008e657600080fd5b820183602082011115620008f957600080fd5b803590602001918460018302840111640100000000831117156200091c57600080fd5b91908080601f016020809104026020016040519081016040528093929190818152602001838380828437600081840152601f19601f82011690508083019250505050505050919291929050505062002a30565b005b620009b6600480360360208110156200098957600080fd5b81019080803573ffffffffffffffffffffffffffffffffffffffff16906020019092919050505062002ebe565b604051808273ffffffffffffffffffffffffffffffffffffffff1673ffffffffffffffffffffffffffffffffffffffff16815260200191505060405180910390f35b60006060600080606062000a0b62000d9d565b9050600081519050808710801562000a24575060008710155b62000a7b576040517f08c379a000000000000000000000000000000000000000000000000000000000815260040180806020018281038252604381526020018062003f1f6043913960600191505060405180910390fd5b600060046000848a8151811062000a8e57fe5b602002602001015173ffffffffffffffffffffffffffffffffffffffff1673ffffffffffffffffffffffffffffffffffffffff16815260200190815260200160002060009054906101000a900473ffffffffffffffffffffffffffffffffffffffff16905082888151811062000b0057fe5b602002602001015196508073ffffffffffffffffffffffffffffffffffffffff166351ff48476040518163ffffffff1660e01b815260040160006040518083038186803b15801562000b5157600080fd5b505afa15801562000b66573d6000803e3d6000fd5b505050506040513d6000823e3d601f19601f82011682018060405250602081101562000b9157600080fd5b810190808051604051939291908464010000000082111562000bb257600080fd5b8382019150602082018581111562000bc957600080fd5b825186600182028301116401000000008211171562000be757600080fd5b8083526020830192505050908051906020019080838360005b8381101562000c1d57808201518184015260208101905062000c00565b50505050905090810190601f16801562000c4b5780820380516001836020036101000a031916815260200191505b5060405250505095508073ffffffffffffffffffffffffffffffffffffffff16631f6b1d226040518163ffffffff1660e01b815260040160206040518083038186803b15801562000c9b57600080fd5b505afa15801562000cb0573d6000803e3d6000fd5b505050506040513d602081101562000cc757600080fd5b810190808051906020019092919050505094508073ffffffffffffffffffffffffffffffffffffffff1663e19391f86040518163ffffffff1660e01b815260040160206040518083038186803b15801562000d2157600080fd5b505afa15801562000d36573d6000803e3d6000fd5b505050506040513d602081101562000d4d57600080fd5b810190808051906020019092919050505093505050509193509193565b60036020528060005260406000206000915054906101000a900473ffffffffffffffffffffffffffffffffffffffff1681565b606033600073ffffffffffffffffffffffffffffffffffffffff16600360008373ffffffffffffffffffffffffffffffffffffffff1673ffffffffffffffffffffffffffffffffffffffff16815260200190815260200160002060009054906101000a900473ffffffffffffffffffffffffffffffffffffffff1673ffffffffffffffffffffffffffffffffffffffff16141562000e87576040517f08c379a0000000000000000000000000000000000000000000000000000000008152600401808060200182810382526023815260200180620040346023913960400191505060405180910390fd5b6000600360003373ffffffffffffffffffffffffffffffffffffffff1673ffffffffffffffffffffffffffffffffffffffff16815260200190815260200160002060009054906101000a900473ffffffffffffffffffffffffffffffffffffffff1690508073ffffffffffffffffffffffffffffffffffffffff166313f9ce07336040518263ffffffff1660e01b8152600401808273ffffffffffffffffffffffffffffffffffffffff1673ffffffffffffffffffffffffffffffffffffffff16815260200191505060006040518083038186803b15801562000f6957600080fd5b505afa15801562000f7e573d6000803e3d6000fd5b505050506040513d6000823e3d601f19601f82011682018060405250602081101562000fa957600080fd5b810190808051604051939291908464010000000082111562000fca57600080fd5b8382019150602082018581111562000fe157600080fd5b825186602082028301116401000000008211171562000fff57600080fd5b8083526020830192505050908051906020019060200280838360005b83811015620010385780820151818401526020810190506200101b565b505050509050016040525050509250505090565b6000600154905090565b60606000806002805490508410620010ba576040517f08c379a000000000000000000000000000000000000000000000000000000000815260040180806020018281038252604081526020018062003f626040913960400191505060405180910390fd5b6003600060028681548110620010cc57fe5b9060005260206000200160009054906101000a900473ffffffffffffffffffffffffffffffffffffffff1673ffffffffffffffffffffffffffffffffffffffff1673ffffffffffffffffffffffffffffffffffffffff16815260200190815260200160002060009054906101000a900473ffffffffffffffffffffffffffffffffffffffff1673ffffffffffffffffffffffffffffffffffffffff166306fdde036040518163ffffffff1660e01b815260040160006040518083038186803b1580156200119857600080fd5b505afa158015620011ad573d6000803e3d6000fd5b505050506040513d6000823e3d601f19601f820116820180604052506020811015620011d857600080fd5b8101908080516040519392919084640100000000821115620011f957600080fd5b838201915060208201858111156200121057600080fd5b82518660018202830111640100000000821117156200122e57600080fd5b8083526020830192505050908051906020019080838360005b838110156200126457808201518184015260208101905062001247565b50505050905090810190601f168015620012925780820380516001836020036101000a031916815260200191505b50604052505050925060028481548110620012a957fe5b9060005260206000200160009054906101000a900473ffffffffffffffffffffffffffffffffffffffff1691506003600060028681548110620012e857fe5b9060005260206000200160009054906101000a900473ffffffffffffffffffffffffffffffffffffffff1673ffffffffffffffffffffffffffffffffffffffff1673ffffffffffffffffffffffffffffffffffffffff16815260200190815260200160002060009054906101000a900473ffffffffffffffffffffffffffffffffffffffff1673ffffffffffffffffffffffffffffffffffffffff166302fb0c5e6040518163ffffffff1660e01b815260040160206040518083038186803b158015620013b457600080fd5b505afa158015620013c9573d6000803e3d6000fd5b505050506040513d6020811015620013e057600080fd5b810190808051906020019092919050505090509193909250565b6000620014078262001e2c565b15620014f857600360008373ffffffffffffffffffffffffffffffffffffffff1673ffffffffffffffffffffffffffffffffffffffff16815260200190815260200160002060009054906101000a900473ffffffffffffffffffffffffffffffffffffffff1673ffffffffffffffffffffffffffffffffffffffff166302fb0c5e6040518163ffffffff1660e01b815260040160206040518083038186803b158015620014b357600080fd5b505afa158015620014c8573d6000803e3d6000fd5b505050506040513d6020811015620014df57600080fd5b81019080805190602001909291905050509050620014fd565b600090505b919050565b600033600073ffffffffffffffffffffffffffffffffffffffff16600360008373ffffffffffffffffffffffffffffffffffffffff1673ffffffffffffffffffffffffffffffffffffffff16815260200190815260200160002060009054906101000a900473ffffffffffffffffffffffffffffffffffffffff1673ffffffffffffffffffffffffffffffffffffffff161415620015ec576040517f08c379a0000000000000000000000000000000000000000000000000000000008152600401808060200182810382526023815260200180620040346023913960400191505060405180910390fd5b82600073ffffffffffffffffffffffffffffffffffffffff16600360008373ffffffffffffffffffffffffffffffffffffffff1673ffffffffffffffffffffffffffffffffffffffff16815260200190815260200160002060009054906101000a900473ffffffffffffffffffffffffffffffffffffffff1673ffffffffffffffffffffffffffffffffffffffff161415620016d4576040517f08c379a0000000000000000000000000000000000000000000000000000000008152600401808060200182810382526023815260200180620040346023913960400191505060405180910390fd5b600360008573ffffffffffffffffffffffffffffffffffffffff1673ffffffffffffffffffffffffffffffffffffffff16815260200190815260200160002060009054906101000a900473ffffffffffffffffffffffffffffffffffffffff16600360003373ffffffffffffffffffffffffffffffffffffffff1673ffffffffffffffffffffffffffffffffffffffff16815260200190815260200160002060009054906101000a900473ffffffffffffffffffffffffffffffffffffffff1673ffffffffffffffffffffffffffffffffffffffff1663325a19f16040518163ffffffff1660e01b815260040160206040518083038186803b158015620017da57600080fd5b505afa158015620017ef573d6000803e3d6000fd5b505050506040513d60208110156200180657600080fd5b81019080805190602001909291905050506200186e576040517f08c379a000000000000000000000000000000000000000000000000000000000815260040180806020018281038252602181526020018062003fa26021913960400191505060405180910390fd5b600360003373ffffffffffffffffffffffffffffffffffffffff1673ffffffffffffffffffffffffffffffffffffffff16815260200190815260200160002060009054906101000a900473ffffffffffffffffffffffffffffffffffffffff1673ffffffffffffffffffffffffffffffffffffffff166302fb0c5e6040518163ffffffff1660e01b815260040160206040518083038186803b1580156200191457600080fd5b505afa15801562001929573d6000803e3d6000fd5b505050506040513d60208110156200194057600080fd5b8101908080519060200190929190505050620019a8576040517f08c379a000000000000000000000000000000000000000000000000000000000815260040180806020018281038252602181526020018062003fc36021913960400191505060405180910390fd5b8073ffffffffffffffffffffffffffffffffffffffff1663325a19f16040518163ffffffff1660e01b815260040160206040518083038186803b158015620019ef57600080fd5b505afa15801562001a04573d6000803e3d6000fd5b505050506040513d602081101562001a1b57600080fd5b810190808051906020019092919050505062001a83576040517f08c379a000000000000000000000000000000000000000000000000000000000815260040180806020018281038252602881526020018062003fe46028913960400191505060405180910390fd5b8073ffffffffffffffffffffffffffffffffffffffff166302fb0c5e6040518163ffffffff1660e01b815260040160206040518083038186803b15801562001aca57600080fd5b505afa15801562001adf573d6000803e3d6000fd5b505050506040513d602081101562001af657600080fd5b810190808051906020019092919050505062001b5e576040517f08c379a00000000000000000000000000000000000000000000000000000000081526004018080602001828103825260288152602001806200400c6028913960400191505060405180910390fd5b600086338760405162001b719062002ef1565b80806020018473ffffffffffffffffffffffffffffffffffffffff1673ffffffffffffffffffffffffffffffffffffffff1681526020018373ffffffffffffffffffffffffffffffffffffffff1673ffffffffffffffffffffffffffffffffffffffff168152602001828103825285818151815260200191508051906020019080838360005b8381101562001c1457808201518184015260208101905062001bf7565b50505050905090810190601f16801562001c425780820380516001836020036101000a031916815260200191505b50945050505050604051809103906000f08015801562001c66573d6000803e3d6000fd5b509050600360008773ffffffffffffffffffffffffffffffffffffffff1673ffffffffffffffffffffffffffffffffffffffff16815260200190815260200160002060009054906101000a900473ffffffffffffffffffffffffffffffffffffffff1673ffffffffffffffffffffffffffffffffffffffff166347cc1b1c826040518263ffffffff1660e01b8152600401808273ffffffffffffffffffffffffffffffffffffffff1673ffffffffffffffffffffffffffffffffffffffff168152602001915050600060405180830381600087803b15801562001d4857600080fd5b505af115801562001d5d573d6000803e3d6000fd5b5050505080600460008373ffffffffffffffffffffffffffffffffffffffff1673ffffffffffffffffffffffffffffffffffffffff16815260200190815260200160002060006101000a81548173ffffffffffffffffffffffffffffffffffffffff021916908373ffffffffffffffffffffffffffffffffffffffff1602179055508073ffffffffffffffffffffffffffffffffffffffff167f4ceea6b21cdad1c331f444b7e6b58ad490efd94515e032a52704cb5c54e741ca60405160405180910390a25050505092915050565b60008073ffffffffffffffffffffffffffffffffffffffff16600360008473ffffffffffffffffffffffffffffffffffffffff1673ffffffffffffffffffffffffffffffffffffffff16815260200190815260200160002060009054906101000a900473ffffffffffffffffffffffffffffffffffffffff1673ffffffffffffffffffffffffffffffffffffffff1614159050919050565b6000809054906101000a900473ffffffffffffffffffffffffffffffffffffffff1681565b60008060009054906101000a900473ffffffffffffffffffffffffffffffffffffffff1673ffffffffffffffffffffffffffffffffffffffff163373ffffffffffffffffffffffffffffffffffffffff1614905090565b6002818154811062001f4e57fe5b906000526020600020016000915054906101000a900473ffffffffffffffffffffffffffffffffffffffff1681565b606081600073ffffffffffffffffffffffffffffffffffffffff16600360008373ffffffffffffffffffffffffffffffffffffffff1673ffffffffffffffffffffffffffffffffffffffff16815260200190815260200160002060009054906101000a900473ffffffffffffffffffffffffffffffffffffffff1673ffffffffffffffffffffffffffffffffffffffff16141562002067576040517f08c379a0000000000000000000000000000000000000000000000000000000008152600401808060200182810382526023815260200180620040346023913960400191505060405180910390fd5b33600073ffffffffffffffffffffffffffffffffffffffff16600360008373ffffffffffffffffffffffffffffffffffffffff1673ffffffffffffffffffffffffffffffffffffffff16815260200190815260200160002060009054906101000a900473ffffffffffffffffffffffffffffffffffffffff1673ffffffffffffffffffffffffffffffffffffffff1614156200214f576040517f08c379a0000000000000000000000000000000000000000000000000000000008152600401808060200182810382526023815260200180620040346023913960400191505060405180910390fd5b600360008573ffffffffffffffffffffffffffffffffffffffff1673ffffffffffffffffffffffffffffffffffffffff16815260200190815260200160002060009054906101000a900473ffffffffffffffffffffffffffffffffffffffff16600360003373ffffffffffffffffffffffffffffffffffffffff1673ffffffffffffffffffffffffffffffffffffffff16815260200190815260200160002060009054906101000a900473ffffffffffffffffffffffffffffffffffffffff1673ffffffffffffffffffffffffffffffffffffffff1663325a19f16040518163ffffffff1660e01b815260040160206040518083038186803b1580156200225557600080fd5b505afa1580156200226a573d6000803e3d6000fd5b505050506040513d60208110156200228157600080fd5b8101908080519060200190929190505050620022e9576040517f08c379a000000000000000000000000000000000000000000000000000000000815260040180806020018281038252602181526020018062003fa26021913960400191505060405180910390fd5b600360003373ffffffffffffffffffffffffffffffffffffffff1673ffffffffffffffffffffffffffffffffffffffff16815260200190815260200160002060009054906101000a900473ffffffffffffffffffffffffffffffffffffffff1673ffffffffffffffffffffffffffffffffffffffff166302fb0c5e6040518163ffffffff1660e01b815260040160206040518083038186803b1580156200238f57600080fd5b505afa158015620023a4573d6000803e3d6000fd5b505050506040513d6020811015620023bb57600080fd5b810190808051906020019092919050505062002423576040517f08c379a000000000000000000000000000000000000000000000000000000000815260040180806020018281038252602181526020018062003fc36021913960400191505060405180910390fd5b8073ffffffffffffffffffffffffffffffffffffffff1663325a19f16040518163ffffffff1660e01b815260040160206040518083038186803b1580156200246a57600080fd5b505afa1580156200247f573d6000803e3d6000fd5b505050506040513d60208110156200249657600080fd5b8101908080519060200190929190505050620024fe576040517f08c379a000000000000000000000000000000000000000000000000000000000815260040180806020018281038252602881526020018062003fe46028913960400191505060405180910390fd5b8073ffffffffffffffffffffffffffffffffffffffff166302fb0c5e6040518163ffffffff1660e01b815260040160206040518083038186803b1580156200254557600080fd5b505afa1580156200255a573d6000803e3d6000fd5b505050506040513d60208110156200257157600080fd5b8101908080519060200190929190505050620025d9576040517f08c379a00000000000000000000000000000000000000000000000000000000081526004018080602001828103825260288152602001806200400c6028913960400191505060405180910390fd5b600360008673ffffffffffffffffffffffffffffffffffffffff1673ffffffffffffffffffffffffffffffffffffffff16815260200190815260200160002060009054906101000a900473ffffffffffffffffffffffffffffffffffffffff1673ffffffffffffffffffffffffffffffffffffffff1663ac9e14f56040518163ffffffff1660e01b815260040160006040518083038186803b1580156200267f57600080fd5b505afa15801562002694573d6000803e3d6000fd5b505050506040513d6000823e3d601f19601f820116820180604052506020811015620026bf57600080fd5b8101908080516040519392919084640100000000821115620026e057600080fd5b83820191506020820185811115620026f757600080fd5b82518660018202830111640100000000821117156200271557600080fd5b8083526020830192505050908051906020019080838360005b838110156200274b5780820151818401526020810190506200272e565b50505050905090810190601f168015620027795780820380516001836020036101000a031916815260200191505b506040525050509350505050919050565b3373ffffffffffffffffffffffffffffffffffffffff166000809054906101000a900473ffffffffffffffffffffffffffffffffffffffff1673ffffffffffffffffffffffffffffffffffffffff16146200284d576040517f08c379a00000000000000000000000000000000000000000000000000000000081526004018080602001828103825260138152602001807f596f7520617265204e6f7420416c6c6f7765640000000000000000000000000081525060200191505060405180910390fd5b600082826040516200285f9062002eff565b808373ffffffffffffffffffffffffffffffffffffffff1673ffffffffffffffffffffffffffffffffffffffff1681526020018060200180602001838103835284818151815260200191508051906020019080838360005b83811015620028d4578082015181840152602081019050620028b7565b50505050905090810190601f168015620029025780820380516001836020036101000a031916815260200191505b50838103825260008152602001602001945050505050604051809103906000f08015801562002935573d6000803e3d6000fd5b50905080600360008573ffffffffffffffffffffffffffffffffffffffff1673ffffffffffffffffffffffffffffffffffffffff16815260200190815260200160002060006101000a81548173ffffffffffffffffffffffffffffffffffffffff021916908373ffffffffffffffffffffffffffffffffffffffff1602179055506002839080600181540180825580915050600190039060005260206000200160009091909190916101000a81548173ffffffffffffffffffffffffffffffffffffffff021916908373ffffffffffffffffffffffffffffffffffffffff160217905550600160008154809291906001019190505550505050565b33600073ffffffffffffffffffffffffffffffffffffffff16600360008373ffffffffffffffffffffffffffffffffffffffff1673ffffffffffffffffffffffffffffffffffffffff16815260200190815260200160002060009054906101000a900473ffffffffffffffffffffffffffffffffffffffff1673ffffffffffffffffffffffffffffffffffffffff16141562002b18576040517f08c379a0000000000000000000000000000000000000000000000000000000008152600401808060200182810382526023815260200180620040346023913960400191505060405180910390fd5b600360003373ffffffffffffffffffffffffffffffffffffffff1673ffffffffffffffffffffffffffffffffffffffff16815260200190815260200160002060009054906101000a900473ffffffffffffffffffffffffffffffffffffffff1673ffffffffffffffffffffffffffffffffffffffff1663325a19f16040518163ffffffff1660e01b815260040160206040518083038186803b15801562002bbe57600080fd5b505afa15801562002bd3573d6000803e3d6000fd5b505050506040513d602081101562002bea57600080fd5b81019080805190602001909291905050501562002e76576000600360003373ffffffffffffffffffffffffffffffffffffffff1673ffffffffffffffffffffffffffffffffffffffff16815260200190815260200160002060009054906101000a900473ffffffffffffffffffffffffffffffffffffffff1690508073ffffffffffffffffffffffffffffffffffffffff166302fb0c5e6040518163ffffffff1660e01b815260040160206040518083038186803b15801562002cac57600080fd5b505afa15801562002cc1573d6000803e3d6000fd5b505050506040513d602081101562002cd857600080fd5b810190808051906020019092919050505062002e2b578073ffffffffffffffffffffffffffffffffffffffff16630f15f4c06040518163ffffffff1660e01b8152600401600060405180830381600087803b15801562002d3757600080fd5b505af115801562002d4c573d6000803e3d6000fd5b505050508073ffffffffffffffffffffffffffffffffffffffff16631ce16af8846040518263ffffffff1660e01b81526004018080602001828103825283818151815260200191508051906020019080838360005b8381101562002dbe57808201518184015260208101905062002da1565b50505050905090810190601f16801562002dec5780820380516001836020036101000a031916815260200191505b5092505050600060405180830381600087803b15801562002e0c57600080fd5b505af115801562002e21573d6000803e3d6000fd5b5050505062002e6f565b3373ffffffffffffffffffffffffffffffffffffffff167fbf7d116f77e0d3be2303ec3ca2af1384e1eb92be19c239d565d5845c62d6b05c60405160405180910390a25b5062002eba565b3373ffffffffffffffffffffffffffffffffffffffff167f1de9c2364187e2be709ce388547328dcb61a71b4490667b394b07b58caf9debc60405160405180910390a25b5050565b60046020528060005260406000206000915054906101000a900473ffffffffffffffffffffffffffffffffffffffff1681565b6104d78062002f0e83390190565b610b3a80620033e58339019056fe608060405234801561001057600080fd5b506040516104d73803806104d78339818101604052606081101561003357600080fd5b810190808051604051939291908464010000000082111561005357600080fd5b8382019150602082018581111561006957600080fd5b825186600182028301116401000000008211171561008657600080fd5b8083526020830192505050908051906020019080838360005b838110156100ba57808201518184015260208101905061009f565b50505050905090810190601f1680156100e75780820380516001836020036101000a031916815260200191505b506040526020018051906020019092919080519060200190929190505050826000908051906020019061011b9291906101a6565b5081600160006101000a81548173ffffffffffffffffffffffffffffffffffffffff021916908373ffffffffffffffffffffffffffffffffffffffff16021790555080600260006101000a81548173ffffffffffffffffffffffffffffffffffffffff021916908373ffffffffffffffffffffffffffffffffffffffff16021790555050505061024b565b828054600181600116156101000203166002900490600052602060002090601f016020900481019282601f106101e757805160ff1916838001178555610215565b82800160010185558215610215579182015b828111156102145782518255916020019190600101906101f9565b5b5090506102229190610226565b5090565b61024891905b8082111561024457600081600090555060010161022c565b5090565b90565b61027d8061025a6000396000f3fe608060405234801561001057600080fd5b50600436106100415760003560e01c80631f6b1d221461004657806351ff484714610090578063e19391f814610113575b600080fd5b61004e61015d565b604051808273ffffffffffffffffffffffffffffffffffffffff1673ffffffffffffffffffffffffffffffffffffffff16815260200191505060405180910390f35b610098610183565b6040518080602001828103825283818151815260200191508051906020019080838360005b838110156100d85780820151818401526020810190506100bd565b50505050905090810190601f1680156101055780820380516001836020036101000a031916815260200191505b509250505060405180910390f35b61011b610221565b604051808273ffffffffffffffffffffffffffffffffffffffff1673ffffffffffffffffffffffffffffffffffffffff16815260200191505060405180910390f35b600160009054906101000a900473ffffffffffffffffffffffffffffffffffffffff1681565b60008054600181600116156101000203166002900480601f0160208091040260200160405190810160405280929190818152602001828054600181600116156101000203166002900480156102195780601f106101ee57610100808354040283529160200191610219565b820191906000526020600020905b8154815290600101906020018083116101fc57829003601f168201915b505050505081565b600260009054906101000a900473ffffffffffffffffffffffffffffffffffffffff168156fea264697066735822122010e650e26364b0b2f5886efcbce16c66e252e236bc3ca0265ff913fe00b5dd0964736f6c63430006080033608060405234801561001057600080fd5b50604051610b3a380380610b3a8339818101604052606081101561003357600080fd5b81019080805190602001909291908051604051939291908464010000000082111561005d57600080fd5b8382019150602082018581111561007357600080fd5b825186600182028301116401000000008211171561009057600080fd5b8083526020830192505050908051906020019080838360005b838110156100c45780820151818401526020810190506100a9565b50505050905090810190601f1680156100f15780820380516001836020036101000a031916815260200191505b506040526020018051604051939291908464010000000082111561011457600080fd5b8382019150602082018581111561012a57600080fd5b825186600182028301116401000000008211171561014757600080fd5b8083526020830192505050908051906020019080838360005b8381101561017b578082015181840152602081019050610160565b50505050905090810190601f1680156101a85780820380516001836020036101000a031916815260200191505b50604052505050826000806101000a81548173ffffffffffffffffffffffffffffffffffffffff021916908373ffffffffffffffffffffffffffffffffffffffff160217905550816001908051906020019061020592919061025b565b50806002908051906020019061021c92919061025b565b506001600360006101000a81548160ff0219169083151502179055506000600360016101000a81548160ff021916908315150217905550505050610300565b828054600181600116156101000203166002900490600052602060002090601f016020900481019282601f1061029c57805160ff19168380011785556102ca565b828001600101855582156102ca579182015b828111156102c95782518255916020019190600101906102ae565b5b5090506102d791906102db565b5090565b6102fd91905b808211156102f95760008160009055506001016102e1565b5090565b90565b61082b8061030f6000396000f3fe608060405234801561001057600080fd5b50600436106100935760003560e01c80631ce16af8116100665780631ce16af8146101e0578063325a19f11461029b57806347cc1b1c146102bd5780635dab242014610301578063ac9e14f51461034b57610093565b806302fb0c5e1461009857806306fdde03146100ba5780630f15f4c01461013d57806313f9ce0714610147575b600080fd5b6100a06103ce565b604051808215151515815260200191505060405180910390f35b6100c26103e1565b6040518080602001828103825283818151815260200191508051906020019080838360005b838110156101025780820151818401526020810190506100e7565b50505050905090810190601f16801561012f5780820380516001836020036101000a031916815260200191505b509250505060405180910390f35b61014561047f565b005b6101896004803603602081101561015d57600080fd5b81019080803573ffffffffffffffffffffffffffffffffffffffff16906020019092919050505061049c565b6040518080602001828103825283818151815260200191508051906020019060200280838360005b838110156101cc5780820151818401526020810190506101b1565b505050509050019250505060405180910390f35b610299600480360360208110156101f657600080fd5b810190808035906020019064010000000081111561021357600080fd5b82018360208201111561022557600080fd5b8035906020019184600183028401116401000000008311171561024757600080fd5b91908080601f016020809104026020016040519081016040528093929190818152602001838380828437600081840152601f19601f8201169050808301925050505050505091929192905050506105d1565b005b6102a36105eb565b604051808215151515815260200191505060405180910390f35b6102ff600480360360208110156102d357600080fd5b81019080803573ffffffffffffffffffffffffffffffffffffffff1690602001909291905050506105fe565b005b610309610664565b604051808273ffffffffffffffffffffffffffffffffffffffff1673ffffffffffffffffffffffffffffffffffffffff16815260200191505060405180910390f35b610353610689565b6040518080602001828103825283818151815260200191508051906020019080838360005b83811015610393578082015181840152602081019050610378565b50505050905090810190601f1680156103c05780820380516001836020036101000a031916815260200191505b509250505060405180910390f35b600360019054906101000a900460ff1681565b60018054600181600116156101000203166002900480601f0160208091040260200160405190810160405280929190818152602001828054600181600116156101000203166002900480156104775780601f1061044c57610100808354040283529160200191610477565b820191906000526020600020905b81548152906001019060200180831161045a57829003601f168201915b505050505081565b6001600360016101000a81548160ff021916908315150217905550565b60606000809054906101000a900473ffffffffffffffffffffffffffffffffffffffff1673ffffffffffffffffffffffffffffffffffffffff168273ffffffffffffffffffffffffffffffffffffffff1614610543576040517f08c379a00000000000000000000000000000000000000000000000000000000081526004018080602001828103825260258152602001806107d16025913960400191505060405180910390fd5b60048054806020026020016040519081016040528092919081815260200182805480156105c557602002820191906000526020600020905b8160009054906101000a900473ffffffffffffffffffffffffffffffffffffffff1673ffffffffffffffffffffffffffffffffffffffff168152602001906001019080831161057b575b50505050509050919050565b80600290805190602001906105e792919061072b565b5050565b600360009054906101000a900460ff1681565b6004819080600181540180825580915050600190039060005260206000200160009091909190916101000a81548173ffffffffffffffffffffffffffffffffffffffff021916908373ffffffffffffffffffffffffffffffffffffffff16021790555050565b6000809054906101000a900473ffffffffffffffffffffffffffffffffffffffff1681565b606060028054600181600116156101000203166002900480601f0160208091040260200160405190810160405280929190818152602001828054600181600116156101000203166002900480156107215780601f106106f657610100808354040283529160200191610721565b820191906000526020600020905b81548152906001019060200180831161070457829003601f168201915b5050505050905090565b828054600181600116156101000203166002900490600052602060002090601f016020900481019282601f1061076c57805160ff191683800117855561079a565b8280016001018555821561079a579182015b8281111561079957825182559160200191906001019061077e565b5b5090506107a791906107ab565b5090565b6107cd91905b808211156107c95760008160009055506001016107b1565b5090565b9056fe596f7520617265206e6f7420746865204f776e6572204f662074686973204163636f756e74a2646970667358221220245ee25f9087d8f06e7c0138bdf88d9d0b03ce1718bae92fd0e55deda1f224da64736f6c63430006080033676574446f632066756e6374696f6e3a2072657175657374206120646f63756d656e742074686174206f7574206f662074686520617272617920626f756e6472792e2e676574436f6d70616e792066756e6374696f6e3a207265717565737420616e20696e646578206f7574206f662074686520617272617920626f756e6472792e2e596f7572206163636f756e74206973206e6f742072656769737472656420796574596f7572206163636f756e74206973206e6f74206163746976617465642079657454686520746172676574206163636f756e7420776173206e6f74207265676973747265642079657474686520746172676574206163636f756e7420776173206e6f74206163746976617465642079657454686973204163636f756e7420776173206e6f74207265676973747265642079657421a26469706673582212204bec329e5067777c7722b881423ff4817441e6c57159a6ea2a38f58079e9a86864736f6c63430006080033",
  "immutableReferences": {},
  "source": "pragma solidity ^0.6.8;\r\nimport \"./Doc.sol\";\r\nimport \"./Ownable.sol\";\r\nimport \"./Company.sol\";\r\n\r\ncontract MyProject is Ownable {\r\n    uint256 companies_index;\r\n    address[] public companies_list;\r\n    mapping(address => Company) public companies; \r\n    mapping(address => Doc) public docs;\r\n    \r\n    \r\n    // EVENTS EVENTS EVENTS EVENTS EVENTS EVENTS EVENTS EVENTS EVENTS EVENTS EVENTS EVENTS EVENTS EVENTS EVENTS EVENTS EVENTS EVENTS\r\n    event successRegis(uint256 _companies_index);\r\n    event alreadyRegis(address indexed _account);\r\n    event inactiveCompany(address indexed _account);\r\n    event unregisteredCompany(address indexed _account);\r\n    event allCompanies(string _name, address indexed _account);\r\n    event docCreated(address indexed doc_id);\r\n    \r\n    \r\n    // MODIFIER MODIFIER MODIFIER MODIFIER MODIFIER MODIFIER MODIFIER MODIFIER MODIFIER MODIFIER MODIFIER MODIFIER MODIFIER MODIFIER\r\n\r\n    // Does Company Exist\r\n    modifier DCE(address _address){\r\n        require(address(companies[_address]) != 0x0000000000000000000000000000000000000000, \"This Account was not registred yet!\");\r\n        _;\r\n    }\r\n\r\n\r\n    // Does Company Active\r\n    modifier DCA(address _address){\r\n        require(companies[msg.sender].active(), \"This Company is Not Active Yet\");\r\n        _;\r\n    }\r\n\r\n    modifier isRegAndActive(Company com){\r\n        require(companies[msg.sender].created(), \"Your account is not registred yet\");\r\n        require(companies[msg.sender].active(), \"Your account is not activated yet\");\r\n        require(com.created(), \"The target account was not registred yet\");\r\n        require(com.active(), \"the target account was not activated yet\");\r\n        _;\r\n    }\r\n    \r\n    \r\n    /// FUNCTIONS FUNCTIONS FUNCTIONS FUNCTIONS FUNCTIONS FUNCTIONS FUNCTIONS FUNCTIONS FUNCTIONS FUNCTIONS\r\n    function regCompany(address _account, string memory _name) public onlyOwner{\r\n            Company company =  new Company(_account, _name,\"\");\r\n            companies[_account] = company;\r\n            companies_list.push(_account);\r\n            companies_index++;\r\n    }\r\n    \r\n    function activateComp(string memory _pk) public DCE(msg.sender){\r\n        if(companies[msg.sender].created()){\r\n            Company com = companies[msg.sender];\r\n            if(!com.active()){\r\n                com.activate();\r\n                com.setPK(_pk);\r\n            }\r\n            else{\r\n                emit inactiveCompany(msg.sender);\r\n            }\r\n        }\r\n        else{\r\n            emit unregisteredCompany(msg.sender);\r\n        }\r\n    }\r\n\r\n    function createDoc(string memory _signature, address _to_address) public DCE(msg.sender) DCE(_to_address) isRegAndActive(companies[_to_address]) returns(address){\r\n        Doc doc = new Doc(_signature, msg.sender, _to_address);\r\n        companies[_to_address].pushDoc(address(doc));\r\n        docs[address(doc)] = doc;\r\n        emit docCreated(address(doc));\r\n    }\r\n\r\n    function doesCompEx(address _address) public view returns(bool){\r\n        return(address(companies[_address]) != 0x0000000000000000000000000000000000000000);\r\n    }\r\n\r\n    function doesCompActive(address _address) view external returns(bool) {\r\n        if(doesCompEx(_address)){\r\n            return(companies[_address].active());\r\n        }\r\n        else{\r\n            return false;\r\n        }\r\n    }\r\n\r\n    \r\n    // | GETTER & CHECKER METHODS | GETTER & CHECKER METHODS | GETTER & CHECKER METHODS | GETTER & CHECKER METHODS |\r\n    function getCompaniesNum() public view returns(uint256){\r\n        return (companies_index);\r\n    }\r\n\r\n    function getCompanyPK(address _address) public DCE(_address) DCE(msg.sender)\r\n    isRegAndActive(companies[_address])view returns(string memory){\r\n        return(companies[_address].getPK());\r\n    }\r\n\r\n\r\n    function getCompDocsArr() public DCE(msg.sender) view returns( address[] memory arr ){\r\n        Company c = companies[msg.sender];\r\n        return c.getRecDocsArr(msg.sender);\r\n    }\r\n\r\n    function getDoc(uint _docIndex) public view returns(address id, string memory signature, address from_address, address to_address)   {\r\n        address[] memory arr = getCompDocsArr();\r\n        uint len = arr.length;\r\n        require((_docIndex < len) && (_docIndex >= 0) , \"getDoc function: request a document that out of the array boundry..\");\r\n        \r\n        Doc doc = docs[address(arr[_docIndex])];\r\n        id = address(arr[_docIndex]);\r\n        signature = doc.signature();\r\n        from_address = doc.from_address();\r\n        to_address = doc.to_address();\r\n    }\r\n    \r\n    function getCompany(uint256 comp_index) public view returns(string memory _name, address _address, bool _active){\r\n        require(comp_index < companies_list.length, \"getCompany function: request an index out of the array boundry..\");\r\n        _name = companies[companies_list[comp_index]].name();\r\n        _address = companies_list[comp_index];\r\n        _active = companies[companies_list[comp_index]].active();\r\n    }\r\n    \r\n}",
  "sourcePath": "C:\\Users\\hasan\\Desktop\\DocsExc\\contracts\\MyProject.sol",
  "compiler": {
    "name": "solc",
    "version": "0.6.8+commit.0bbfe453.Emscripten.clang"
  },
  "schemaVersion": "3.2.2",
  "updatedAt": "2020-08-23T07:34:26.032Z",
  "networkType": "ethereum",
  "devdoc": {
    "methods": {}
  },
  "userdoc": {
    "methods": {
      "regCompany(address,string)": {
        "notice": "FUNCTIONS FUNCTIONS FUNCTIONS FUNCTIONS FUNCTIONS FUNCTIONS FUNCTIONS FUNCTIONS FUNCTIONS FUNCTIONS"
      }
    }
  }
}